:100000000C94B1020C94D9020C94D9020C94D9022C
:100010000C94D9020C94D9020C94D9020C94D902F4
:100020000C94D9020C94D9020C94D9020C94291D79
:100030000C94D9020C94EC1F0C941E200C94D90241
:100040000C94D9020C94D9020C94D9020C94041C7F
:100050000C94D90256085D08A009630871088D0840
:100060009B08A908B708C508E40816092A098B09DE
:10007000EA09060A140A3C0A540AA70AAA0A010B4A
:100080000F0C300C300C2D0C300C0D0C300C300CD7
:10009000300CF70B300C300C1B0C2B0C290C300CDB
:1000A000300C300C270C494F533A20436865636B82
:1000B00020534420616E6420707265737320612048
:1000C0006B657920746F207265706561740D0A002C
:1000D000494F533A2043757272656E742000202098
:1000E0002020202020202020202020202020200D23
:1000F000000D0A507265737320435220746F2061A3
:1001000063636570742C2045534320746F206578B9
:100110006974206F7220616E79206F746865722037
:100120006B657920746F206368616E6765002036A7
:100130003A204368616E6765205A383020636C6FDF
:10014000636B20737065656420282D3E0020353A6E
:1001500020694C6F6164000D0A20343A20417574A7
:100160006F626F6F740020333A204C6F6164204FD0
:10017000532066726F6D200020323A20466F7274F1
:10018000680020313A2042617369630020303A20D0
:100190004E6F206368616E6765202800494F533AAF
:1001A0002053656C65637420626F6F74206D6F649B
:1001B00065206F722073797374656D207061726150
:1001C0006D65746572733A00494F533A2043502F5E
:1001D0004D204175746F657865632069732000490F
:1001E0004F533A20466F756E6420475045204F703C
:1001F00074696F6E00494F533A205A383020636C4F
:100200006F636B207365742061742000494F533A0B
:1002100020466F756E6420657874656E6465642031
:1002200073657269616C20527820627566666572CA
:10023000000D0A0A5A38302D4D424332202D2041FC
:100240003034303631380D0A494F53202D20492F94
:100250004F2053756273797374656D202D2053326E
:1002600032303731382D523236303131390D0A00C3
:1002700072023110FD2152FDCDC6FECD3EFFCDF400
:10028000FD3EFFBC2010BD200D21D9FDCDC6FE21B5
:1002900088FDCDC6FE76E521D9FDCDC6FE2175FDD2
:1002A000CDC6FEE1CD4BFFCD3EFFCD3EFFDB01FED7
:1002B000FF20FAE9694C6F6164202D20496E746556
:1002C0006C2D486578204C6F61646572202D205339
:1002D000323030373138005374617274696E672080
:1002E000416464726573733A20004C6F61642065E9
:1002F00072726F72202D2053797374656D2068615E
:100300006C7465640057616974696E6720696E700A
:1003100075742073747265616D2E2E2E0053796E84
:10032000746178206572726F722100436865636B37
:1003300073756D206572726F722100694C6F616414
:100340003A2000416464726573732076696F6C6152
:1003500074696F6E2100F5D5C501FFFF21A3FDCDA6
:10036000C6FECD3EFFCD72FFFE0D28F9FE0A28F530
:10037000FE2028F1CD1AFFCD69FFFE3AC2A3FECDC3
:10038000E1FE571E00CDBEFECDD6FE3EFFB82005D5
:10039000B92002444D7CCDBEFE7DCDBEFECDE1FE3A
:1003A000CDBEFEFE01201ECDE1FECDBEFE7BA72808
:1003B00066CD3EFF21D9FDCDC6FE21C9FDCDC6FECD
:1003C00001FFFF18527AA7282CCDE1FECDBEFEE535
:1003D000C5A701F0FCED42C1E1DA8EFECD3EFF2162
:1003E000D9FDCDC6FE21E1FDCDC6FE01FFFF1827D8
:1003F00077231518D0CDE1FECDBEFE7BA720B2CD70
:100400003EFFC303FECD3EFF21D9FDCDC6FE21BB7D
:10041000FDCDC6FE01FFFFCD3EFF6069C1D1F1C930
:10042000C54F7B915F79C1C9F5E57EFE002806CDF9
:1004300069FF2318F5E1F1C9F5CDE1FE67CDE1FED5
:100440006FF1C9C5CDF4FECB07CB07CB07CB074770
:10045000CDF4FEB0C1C9CD72FFCD1AFFCD06FF307D
:10046000F5CD23FFCD2EFFC9FE47D0FE3030023F31
:10047000C9FE3AD8FE4130023FC937C9FE61D8FEF5
:100480007BD0E65FC9FE3A3802D607D630E60FC900
:10049000F5E60FC630FE3A3802C607CD69FFF1C94E
:1004A000F53E0DCD69FF3E0ACD69FFF1C9E5F57C4A
:1004B000CD58FF7DCD58FFF1E1C9F5C5470F0F0FAE
:1004C0000FCD2EFF78CD2EFFC1F1C9F53E01D3012E
:1004D000F1D300C9DB01FEFFCA72FFC900000001B1
:1004E00000000000000000000403000600000000FF
:1004F00000000000000000000000000001020408ED
:1005000010204080010204081020408001020408ED
:1005100010204080010204081020408002020202E4
:100520000202020204040404040404040303030397
:10053000030303030101010101010101000039006E
:1005400036003300300000003B0038003500320038
:1005500000003A00370034003100E9042C1B4E2023
:10056000F50411241FBECFE5D8E0DEBFCDBF13E0F8
:10057000A0E6B0E0EAEAFBE402C005900D92AE3FCF
:10058000B107D9F726E0AEEFB3E001C01D92AB3260
:10059000B207E1F712E0C0EBD2E004C02197FE0100
:1005A0000E943325CD3AD107C9F70E94CB220C9483
:1005B000C8250C9400000F931F93CF93DF931F92D5
:1005C000CDB7DEB78C0169830E94B32569816817B6
:1005D00041F0C8010F90DF91CF911F910F910C94C2
:1005E000BB250F90DF91CF911F910F9108950C942F
:1005F000B325DC01ED91FC910190F081E02D09948F
:100600000F931F93CF93DF93EC010E94731D08811A
:1006100019812A813B81DC01CB01801B910BA20B4C
:10062000B30B893C9105A105B10580F080E00E94E3
:10063000971E61E0892B09F060E080E00E94671E50
:100640000E94731D688379838A839B83DF91CF9196
:100650001F910F9108956AE00E94F12420E1829F8A
:10066000900D1124892F0895982F92959F708F7067
:100670002AE0929F800D11240895CF93C82F8A30CD
:1006800030F46EE770E08AE495E00E94DD204AE0F5
:1006900050E06C2F8AE495E0CF910C94C721CF9362
:1006A000DF93D82FC0E0CD1751F061E08FE00E94BA
:1006B000671E60E08FE00E94671ECF5FF4CFDF917E
:1006C000CF910895CF93DF93D82F81E00E944F03FD
:1006D00060E082E00E94671ECFEFCABB86E38BBB5F
:1006E00082E00E944F031ABACBBB82E00E944F0304
:1006F000CABBDBBB82E00E944F031ABACBBB61E0EE
:1007000082E00E94671E83E00E944F0381E00E9406
:100710004F0360E082E00E94671ECABB83E28BBB8E
:1007200082E00E944F031ABACBBB61E082E00E94D4
:10073000671E83E0DF91CF910C944F030F931F93BB
:10074000CF93DF931F92CDB7DEB7082F81E0998357
:100750000E944F0360E082E00E94671E1FEF1ABBF9
:1007600081E28BBB82E00E944F031ABA1BBB82E07E
:100770000E944F031ABB0BBB83E00E944F03998179
:100780009BBB82E00E944F031ABA1BBB61E082E070
:100790000F90DF91CF911F910F910C94671E60E035
:1007A00086E10E94671E86E00E944F0361E086E1B9
:1007B0000E94671E82E00C944F030E94611408950A
:1007C0000E94771508950F931F93CF93DF9300D066
:1007D000CDB7DEB78B01AE014F5F5F4F60E270E0D7
:1007E0000E9403179981F80190830F900F90DF9179
:1007F000CF911F910F9108950F931F93CF93DF9384
:1008000000D0CDB7DEB78B01AE014F5F5F4F0097D1
:1008100019F060E270E004C060E070E080E090E019
:100820000E94D7179981F80190830F900F90DF9164
:10083000CF911F910F910895A0E0B0E0BC01CD01D0
:1008400029E0660F771F881F991F2A95D1F70E940C
:10085000DC1808950F931F93CF93DF93662309F459
:100860007EC08A01C62FD82F60E870E08AE495E048
:100870000E94DD204AE050E06C2F8AE495E00E945F
:10088000C7216DEE71E08AE495E00E94DD20C3305F
:1008900099F038F4C13069F0C230B9F46AE970E017
:1008A00016C0C53079F058F0C63079F463EC70E0CA
:1008B0000EC061E970E00BC064EA70E008C06CEA49
:1008C00070E005C067EB70E002C061ED70E08AE4A3
:1008D00095E00E94DD2069ED70E08AE495E00E94D9
:1008E000DD20D23091F038F4DD2361F0D13099F47D
:1008F00064EE70E012C0D33059F0D43061F464EF8C
:1009000070E00BC06EED70E008C069EE70E005C0ED
:100910006EEE70E002C061ED70E08AE495E00E9446
:10092000DD2069EF70E08AE495E00E94DD2001158A
:10093000110559F064E071E08AE495E00E94DD2041
:10094000B8018AE495E00E94DD206BEB72E08AE456
:1009500095E0DF91CF911F910F910C94FC20DF91D6
:10096000CF911F910F910895CF93C82F6EE071E042
:100970008AE495E00E94DD204AE050E06C2F8AE492
:1009800095E00E94C721C05DC093630081E690E0BE
:100990000E94E00363E074E088E094E00E94E303D7
:1009A00080910304882399F06DEE71E08AE495E06C
:1009B0000E94DD2068E074E08AE495E00E94DD207A
:1009C0006BEB72E08AE495E0CF910C94DD20CF913F
:1009D000089568E171E086E794E00E943C2261E2BC
:1009E00071E080E794E00C943C2280E794E00E9460
:1009F000CE2186E794E00C94CE218AE495E00E9413
:100A0000C01E892B41F080916204882321F060E0B0
:100A100081E00C94671E08958AE495E00E94C01E50
:100A2000181619062CF48AE495E00E94DA1EF4CF19
:100A300066EA70E08AE495E00E94EA208AE495E0A4
:100A40000E94C01E18161906CCF70895EF920F9356
:100A5000CF93DF931F92CDB7DEB768E670E081E8F1
:100A600094E029830E94AD1A60E070E081E894E090
:100A70000E94F902809158040E942B03682F81E89C
:100A800094E00E945A1A809157040E942B03682F09
:100A900081E894E00E945A1A809156040E942B0328
:100AA000682F81E894E00E945A1A61E070E081E8C2
:100AB00094E00E94F9022981822F0E942B03682F63
:100AC00081E894E00E945A1A802F0E942B03682F1D
:100AD00081E894E00E945A1A8E2D0E942B03682F01
:100AE00081E894E00E945A1A81E894E00F90DF9127
:100AF000CF910F91EF900C94291B6F927F928F9260
:100B00009F92AF92BF92CF92DF92EF92FF920F939C
:100B10001F93CF93DF934C015B01EA01390168E633
:100B200070E081E894E00E94AD1A60E070E081E836
:100B300094E00E94F90281E894E00E94291B42E1BE
:100B400050E068E670E081E894E00E94261B81E8AE
:100B500094E00E94061A8F770E943403F401808388
:100B600081E894E00E94061A0E943403F501808314
:100B700081E894E00E94061A8F730E9434038883F0
:100B800081E894E00E94061A81E894E00E94061A27
:100B90000E943403F301808381E894E00E94061AE6
:100BA0000E943403F801808381E894E00E94061AD1
:100BB0000E943403F7018083CAE081E894E00E9438
:100BC000061AC150D1F781E894E00E94061AF60196
:100BD0008083DF91CF911F910F91FF90EF90DF9075
:100BE000CF90BF90AF909F908F907F906F9008951F
:100BF000CF92DF92EF92FF920F931F938823A1F081
:100C000082E5C82E84E0D82E93E5E92E94E0F92EF3
:100C100004E514E025E534E046E554E067E574E0DA
:100C200088E594E00E947D05809155040E943D0373
:100C30006DE271E08AE495E00E94DD208091540429
:100C40000E943D036DE271E08AE495E00E94DD20A0
:100C5000809153040E943D0367E971E08AE495E0C6
:100C60000E94DD20809156040E943D0367E471E0FC
:100C70008AE495E00E94DD20809157040E943D03A4
:100C800067E471E08AE495E00E94DD2080915804D9
:100C90001F910F91FF90EF90DF90CF900C943D0348
:100CA000CF92DF92EF92FF920F931F93CF93DF9338
:100CB00082E5C82E84E0D82E93E5E92E94E0F92E43
:100CC00004E514E025E534E046E554E067E574E02A
:100CD00088E594E00E947D0510926B046FE271E05C
:100CE0008AE495E00E94FC2069E471E08AE495E0E2
:100CF0000E94FC20CAE0D6EF11E067E971E08AE4C7
:100D000095E00E94DD2080916B04823031F170F417
:100D10008823D1F0813009F047C061E871E08AE4AE
:100D200095E00E94DD20809154043CC0843091F114
:100D300040F18530C9F568EB71E08AE495E00E94E6
:100D4000DD20809158042EC068E771E08AE495E0C8
:100D50000E94DD208091530425C06BE871E08AE495
:100D600095E00E94DD206DE08AE495E00E943F1F3F
:100D700069E971E08AE495E00E94DD2080915504E4
:100D800011C062EA71E08AE495E00E94DD20809162
:100D9000560408C06CEA71E08AE495E00E94DD2008
:100DA000809157040E943D030E94731D60935E046E
:100DB00070935F0480936004909361048EE594E0E7
:100DC0000E9400038AE495E00E94DA1E80935D048D
:100DD000853741F0853531F0843721F0843511F0C5
:100DE0008D3061F78F7D853521F0843509F0F0C0B5
:100DF00068C080916B04823011F128F4882359F087
:100E00008130A1F0E5C0843009F445C0C8F18530D7
:100E100009F44CC0DDC0809153048F5F843618F410
:100E200080935304D5C010925304D2C090915404BF
:100E30009F5F9D3008F071C090935404C9C08091A9
:100E400055048F5F80935504E0915404E23081F49F
:100E500090E040915304437021E030E011F020E035
:100E600030E0245E3F4F281739070CF0B1C081C035
:100E7000F0E0EE53FC4F9081981708F47AC0A8C0B8
:100E8000809156048F5F883118F480935604A0C077
:100E9000109256049DC0809157048F5F8C3318F4D4
:100EA0008093570495C01092570492C080915804C3
:100EB0008F5F8C3318F4809358048AC010925804C2
:100EC00087C080916B04823059F128F4882361F047
:100ED0008130C9F07DC0843009F45DC008F44CC095
:100EE000853009F467C074C020915304265F24360E
:100EF00038F0822F6C2F0E94F1248D9F200D112439
:100F00002093530465C0809154048B3010F08A50B4
:100F100004C0833008F05CC0865F8093540458C0DE
:100F200020915504265F20935504622F70E0E091D4
:100F30005404F0E0EE53FC4F8081482F50E0309194
:100F40005304337081E090E011F080E090E0840F72
:100F5000951F861797074CF4822F6C2F0E94F1245F
:100F60008D9F200D112420935504809155048111EB
:100F70002FC0109355042CC020915604265F2831B1
:100F800038F0822F6C2F0E94F1248D9F200D1124A8
:100F9000209356041DC020915704265F2C3338F04F
:100FA000822F6C2F0E94F1248D9F200D11242093FD
:100FB00057040EC020915804265F2C3338F0822F3E
:100FC0006C2F0E94F1248D9F200D11242093580432
:100FD0006DE08AE495E00E943F1F80915D048D30B2
:100FE00009F08BCE80916B048F5F80936B04863009
:100FF00008F483CEE09053040091540420915504EA
:101000004091560460915704809158040E9426052F
:1010100064EC71E08AE495E00E94FC2063ED71E0ED
:101020008AE495E00E94DD2081E00E94F8056BEBE8
:1010300072E08AE495E0DF91CF911F910F91FF90CC
:10104000EF90DF90CF900C94FC20CF92DF92EF9244
:10105000FF920F931F93CF9383E00E94971E892BDB
:1010600009F0FFC283E10E94971E892B09F07AC123
:1010700082E10E94971E80936F0429B320936E042F
:10108000882339F02093770010926D0410926C043D
:1010900060C1E09177008E2F90E08E30910508F0CE
:1010A0004FC1FC01E65DFF4F0C94332520FF02C0C9
:1010B00060E001C061E08DE041C1622F8AE495E00B
:1010C0000E943F1F3DC180916A04882309F438C102
:1010D00060E270E081E894E00E94AD1A62E170E0A5
:1010E0000DC080916A04882309F42AC160E270E08F
:1010F00081E894E00E94AD1A63E170E081E894E039
:101100000E94F90260916E0481E894E00E945A1AEC
:1011100081E894E00E94291B13C180916A0488230E
:1011200009F40EC160E270E081E894E00E94AD1A1B
:1011300060E070E0E3CF80916A04882309F400C185
:1011400060E270E081E894E00E94AD1A61E070E036
:10115000D5CF80916A04882309F4F2C060E270E080
:1011600081E894E00E94AD1A6CE070E0C7CF8091F6
:101170006A04882309F4E4C060E270E081E894E046
:101180000E94AD1A6DE070E0B9CF2436C8F48091AA
:10119000FE03805D80936E00822F6AE00E94F1243E
:1011A00090E3980F90937000205D3AE0839F2019A0
:1011B0001124209371008CE690E00E94771501C005
:1011C00080E180936000BCC040916C0450916D043C
:1011D000822F90E04115510529F4909302048093E9
:1011E00001041DC0982F882720910104822B909321
:1011F000020480930104209100048115924028F498
:10120000203218F41092600007C0203210F481E1FF
:1012100001C082E1809360008FEF809377004F5F81
:101220005F4F50936D0440936C048AC02093000478
:1012300080910104909102048115924028F420329B
:1012400038F4109260007CC0203210F481E1B9CFF4
:1012500082E1B7CF80916C0490916D04892BD1F419
:101260008091010490910204811522E0920790F48C
:1012700020910004203270F43091600031110AC0D6
:1012800065E0880F991F6A95E1F7822B0E941C0484
:101290008093600080916000811133C080916C0464
:1012A0008F7180936B04E82FF0E0E85FFB4F909123
:1012B0006E0490838F3129F56FEF73E088E094E03E
:1012C0000E94FC03809360008091FF03803218F439
:1012D00083E18093600080916C0490916D048F3F56
:1012E000914078F080916000811108C06FEF73E049
:1012F00080E090E00E94FC03809360008FEF809379
:10130000770080916C0490916D04019690936D0428
:1013100080936C0415C0213059F020F0223081F404
:1013200060E007C061E08CE00E94671E60E005C0DD
:1013300061E08CE00E94671E61E08BE00E94671E06
:10134000809177008A3029F08C3019F08FEF8093EC
:10135000770060E08EE00E94671E60E080E00E94FF
:10136000671E70C184E10E94971E892B91F782E16C
:101370000E94971E80936F0410926E048823D9F008
:101380008FEF80936E048AE495E00E94C01E1816C9
:1013900019064CF48AE495E00E94DA1E80936E04EC
:1013A00010925A0403C081E080935A0461E081E006
:1013B0000E94671E34C1E09177008E2F90E0FC01FF
:1013C000E058F109E830F10508F021C1E85CFF4F71
:1013D0000C9433258DE00E94971E80936B0462E08D
:1013E0008DE00E942B1E8DE00E94971E21E0892B2C
:1013F00009F020E020936E0461E08DE00E942B1E36
:1014000060916B048DE00E94671E01C180916A04A7
:10141000882309F4FCC060E270E081E894E00E9457
:10142000AD1A62E170E00DC080916A04882309F46E
:10143000EEC060E270E081E894E00E94AD1A63E1E2
:1014400070E081E894E00E94F90281E894E00E9453
:10145000291B60E270E081E894E00E94AD1A41E04F
:1014600050E060E270E081E894E00E94261B81E891
:1014700094E00E94061AC9C090915904990F2091D6
:101480000504C92FC22B8AE495E00E94C01E1816DD
:10149000190614F090E001C094E09C2B80915A044E
:1014A000811188E0892BB1C080915904882309F407
:1014B0004AC080916C0490916D04892BA1F442E59F
:1014C000C42E44E0D42E53E5E52E54E0F52E04E579
:1014D00014E025E534E046E554E067E574E088E58E
:1014E00094E00E947D0580916C0490916D0487309A
:1014F000910548F583309105C1F038F481309105AC
:1015000071F08230910571F007C08530910599F036
:1015100078F08630910591F02091580411C0209107
:1015200057040EC0209156040BC02091550408C0EA
:101530002091540405C02091530402C0209152040C
:1015400020936E0458C08FEF8093770060C0809125
:1015500060005BC080916C0490916D04892BD1F484
:101560008091010490910204811522E0920790F489
:1015700020910004203270F43091600031110AC0D3
:1015800035E0880F991F3A95E1F7822B0E941C04E1
:101590008093600080916000811122C080916C0472
:1015A0008F7180936B0481110FC063E074E088E059
:1015B00094E00E94E30380936000809103048032F2
:1015C00018F483E18093600080916000811108C06D
:1015D000E0916B04F0E0E85FFB4F808180936E0444
:1015E00080916C0490916D048F3F31E0930718F067
:1015F0002FEF20937700019690936D0480936C04F5
:1016000006C088E294E00E94611480936E04809189
:1016100077008D7F843819F08FEF80937700CFEFBC
:10162000CABB80916E048BBB60E08EE00E94671E97
:1016300060E080E00E94671E82E090E00E94E11D71
:101640001ABACBBB61E080E00E94671E61E08EE0C9
:10165000CF911F910F91FF90EF90DF90CF900C945E
:10166000671ECF911F910F91FF90EF90DF90CF9069
:101670000895EF920F93CF93DF9300D000D000D066
:10168000CDB7DEB768E670E081E894E00E94AD1A5D
:1016900081E894E00E94291B811163C160EF71E031
:1016A0008AE495E00E94DD2081E00E94F8056BEB62
:1016B00072E08AE495E00E94FC206FE072E08AE428
:1016C00095E00E94DD2060915204062E000C770BFD
:1016D0004AE050E08AE495E00E94B32164E372E0BE
:1016E0008AE495E00E94FC2068E670E081E894E0DE
:1016F0000E94AD1A6FE070E081E894E00E94F90268
:1017000081E894E00E94291B41E050E068E670E027
:1017100081E894E00E94261B81E894E00E94061A6A
:1017200087FF21C128E030E046E050E066E774E042
:10173000CE0101960E947922CE0101960E94BF221D
:1017400060935804CE0101960E94CE2125E030E03E
:1017500043E050E066E774E0CE0101960E947922F2
:10176000CE0101960E94BF2260935704CE010196DC
:101770000E94CE2122E030E040E050E066E774E0D5
:10178000CE0101960E947922CE0101960E94BF22CD
:1017900060935604CE0101960E94CE2126E030E0EF
:1017A00044E050E060E774E0CE0101960E947922A7
:1017B000CE0101960E94BF2260935504CE0101968E
:1017C0000E94CE2160E070E080E794E00E946822F1
:1017D000082E000C990BAA0BBB0BFC01E154F1097C
:1017E000E331F105E8F5E05CFF4F0C94332561E04F
:1017F00070E080E794E00E946822813661F062E048
:1018000070E080E794E00E9468228E3611F087E055
:1018100025C086E023C081E021C082E01FC062E0D5
:1018200070E080E794E00E946822823711F088E03F
:1018300015C084E013C062E070E080E794E00E948D
:101840006822823711F085E009C083E007C089E093
:1018500005C08AE003C08BE001C08CE08093540493
:101860002BE030E049E050E060E774E0CE01019603
:101870000E947922CE0101960E94BF2260935304F8
:10188000CE0101960E94CE2166E372E08AE495E0E3
:101890000E94FC206EE472E08AE495E00E94DD2064
:1018A00080E00E94F80569E772E08AE495E00E9412
:1018B000DD200E94731D60935E0470935F0480932B
:1018C0006004909361048EE594E00E9400038AE432
:1018D00095E00E94DA1E80935D04893731F08935E6
:1018E00021F08E3611F08E3471F7682F8AE495E07E
:1018F0000E940E2180915D048F7D8935D9F4E0909E
:101900005304009154042091550440915604609171
:101910005704809158040E94260564E872E08AE426
:1019200095E00E94DD2081E00E94F8058AE495E0C0
:101930000E94E62068E670E081E894E00E94AD1A1B
:101940006FE070E081E894E00E94F90268E070E0E6
:1019500081E894E00E94F90281E894E00E94291B4A
:1019600002C080E001C081E026960FB6F894DEBF89
:101970000FBECDBFDF91CF910F91EF900895CF9320
:10198000DF9361E086E10E942B1E60E086E10E9409
:10199000671E61E080E00E942B1E60E080E00E94F4
:1019A000671E62E08DE00E942B1E8DE00E94971E54
:1019B000EC0161E08DE00E942B1E61E08DE00E9451
:1019C000671E62E081E00E942B1E61E081E00E94C0
:1019D0002B1E61E081E00E94671E61E082E00E94B0
:1019E0002B1E61E082E00E94671E60E083E00E949F
:1019F0002B1E62E08EE00E942B1E61E08EE00E94B2
:101A00002B1E61E08EE00E94671E1ABA8FEF8BBB1F
:101A100062E085E10E942B1E62E084E10E942B1EA1
:101A200062E083E10E942B1E62E082E10E942B1E95
:101A300061E08CE00E942B1E61E08CE00E94671E3A
:101A400061E08BE00E942B1E60E08BE00E94671E2D
:101A500061E08FE00E942B1E0E94CF0362E08AE0CB
:101A60000E942B1E61E087E10E942B1E60E087E14F
:101A70000E94671E64E670E080E090E00E94A51D71
:101A800061E087E10E94671E64EF71E080E090E012
:101A90000E94A51D8DE090E00E94F702823028F0A0
:101AA00061E08DE090E00E94DB028DE090E00E941A
:101AB000F70280935B048EE090E00E94F70280932F
:101AC000FE03833038F060E08EE090E00E94DB029D
:101AD0001092FE0381E894E00E94991A60E270E09F
:101AE00081E894E00E94AD1A81E894E00E94291BED
:101AF000811103C081E080936A0426E040E052EC4B
:101B000061E070E08AE495E00E94861F61E372E084
:101B10008AE495E00E94EA206CE072E08AE495E0B5
:101B20000E94EA2065EF71E08AE495E00E94B92006
:101B300080915B04882319F069EA72E002C06BEAC5
:101B400072E08AE495E00E94DD206DEA72E08AE4AA
:101B500095E00E94FC200E94390B809359048091EB
:101B60006A04882331F06FED71E08AE495E00E9409
:101B7000EA2068EC71E08AE495E00E94B9208CE0EC
:101B800090E00E94F702823028F060E08CE090E064
:101B90000E94DB028CE090E00E94F7028093050433
:101BA000882319F061EB72E002C064EB72E08AE412
:101BB00095E00E94FC2088E294E00E94DD0388E228
:101BC00094E00E94DD038AE090E00E94F702809397
:101BD0006904CD2B19F0853008F464C18AE495E0DE
:101BE0000E94C01E181619062CF48AE495E00E9483
:101BF000DA1EF4CF8AE495E00E94E6206CE971E0F9
:101C00008AE495E00E94EA208AE495E00E94E620BA
:101C1000809169048530C8F46CE871E08AE495E04D
:101C20000E94B9206091690470E06F5F7F4F4AE0C5
:101C300050E08AE495E00E94B3216BEB72E08AE405
:101C400095E00E94FC20D0E301C0D1E362E871E09E
:101C50008AE495E00E94EA2068E771E08AE495E072
:101C60000E94EA2066E671E08AE495E00E94B920CD
:101C70008091FE030E94B40467E571E08AE495E078
:101C80000E94EA206DE471E08AE495E00E94EA2077
:101C90006EE271E08AE495E00E94B92080915B04D5
:101CA000882319F06BEA72E002C069EA72E08AE404
:101CB00095E00E94DD2068EB72E08AE495E00E94E6
:101CC000FC206DEB72E08AE495E00E94DD208091BB
:101CD0000504811103C061EB72E002C064EB72E0A5
:101CE0008AE495E00E94DD206BEB72E08AE495E0E7
:101CF0000E94FC206AED72E08AE495E00E94DD20FB
:101D00008091FE030E94B4048AE495E00E94E620DC
:101D100080915904882341F066EE72E08AE495E0F0
:101D20000E94FC20C9E301C0C8E38AE495E00E9458
:101D3000E6200E94731D60935E0470935F0480939D
:101D40006004909361046FEF72E08AE495E00E9472
:101D5000DD208EE594E00E9400038AE495E00E9475
:101D6000DA1E80935D048D17A4F3C81794F3682FCF
:101D70008AE495E00E94DF2063E173E08AE495E065
:101D80000E94FC2080915D048733B1F01CF48633FF
:101D900049F078C08833E1F0893309F073C00E94BC
:101DA000500670C061E080915B04811160E0609337
:101DB0005B048DE090E009C061E080910504811131
:101DC00060E0609305048CE090E00E94DB025AC062
:101DD00061EF70E08AE495E00E94EA208091FE03C2
:101DE00080935C04C3E0D0E080915C0490E00196B5
:101DF000BE010E94FD2480935C0468E173E08AE4E4
:101E000095E00E94DD2080915C040E94B4046EED98
:101E100070E08AE495E00E94B9208AE495E00E948F
:101E2000C01E181619062CF48AE495E00E94DA1EEA
:101E3000F4CF8AE495E00E94C01E181619062CF013
:101E40008EE594E00E940003F4CF8AE495E00E94BE
:101E5000DA1E80935D048D3011F08B3129F68AE40F
:101E600095E00E94E6208AE495E00E94E6208091B9
:101E70005D048D3039F460915C046093FE038EE064
:101E800090E0A3CF60915D046153609369048AE0A0
:101E900090E0653018F40E94DB0204C00E94F70253
:101EA0008093690480916904823071F460ED70E080
:101EB0008AE495E00E94B9208091FE030E94B40458
:101EC0008AE495E00E94E62080916904823071F1F5
:101ED00040F48823E9F0813009F05AC089E293E0A8
:101EE00041C0833009F445C0843009F051C0E0E7B7
:101EF000F2E08591949190936804809367048AE658
:101F000092E0909366048093650480E19DEF3CC06D
:101F10008DE193E09093070480930604109264048B
:101F20001092630481E08093620432C08091FE03CA
:101F3000813079F028F0823059F58AE493E012C0BC
:101F400085E393E0909307048093060480EE91ED7F
:101F50001BC08FE393E0909307048093060480E80E
:101F600090E012C0909307048093060480E091E013
:101F70000BC085E593E090930704809306041092CC
:101F800064041092630404C0909364048093630417
:101F900061E080E00E94671E809163049091640478
:101FA000892B79F080E090E00E949E0383EC0E94F0
:101FB0006203809163040E946203809164040E9422
:101FC000620380916304909164040E949E03809157
:101FD0006904843008F0C9C088E294E00E9461146A
:101FE000811109C080910604909107040E94771521
:101FF000809304043DC088E294E00E9461148093C1
:102000000404882379F340E050E06091040480E008
:102010000E942A040E940C0588E294E00E94DD03DD
:10202000EACF40910604509107046091040481E0D6
:102030000E942A040E940C058091060490910704D6
:102040000E94771580930404833081F088E294E045
:102050000E94DD0388E294E00E94DD038091060483
:10206000909107040E9477158093040480910404E2
:102070008111D7CF62E673E08AE495E00E94DD200B
:1020800060910604709107048AE495E00E94DD20C7
:102090006EE773E08AE495E00E94DD2006C060915F
:1020A00004048032F1F461111CC063E074E088E044
:1020B00094E00E94E3038093040410925C04E09196
:1020C0005C0480910304E81750F7F0E0E85FFB4FF1
:1020D00080810E94620380915C048F5F80935C0426
:1020E000EECF662369F0409106045091070482E028
:1020F0000E942A040E940C0580E090E00E941C04CB
:10210000809104048111D1CF63E873E08AE495E003
:102110000E94FC2060E086E10E94671E82B5877FF6
:1021200082BD85B5816085BD85B5897F85BD85B555
:10213000886085BD85B58F7B85BD85B5806185BD92
:1021400085B58F7D85BD80915B0483BD61E08FE0A7
:102150000E942B1E69E873E08AE495E00E94FC204F
:102160008AE495E00E94E6201BC066EA73E08AE4F8
:1021700095E00E94DD20C0E0D0E080916504909160
:102180006604C817D90708F0BFCFE0916704F09143
:102190006804EC0FFD1F84910E9462032196EDCF2D
:1021A0008AE495E00E94C01E181619062CF48AE4F1
:1021B00095E00E94DA1EF4CF61E070E080E090E0EC
:1021C0000E94A51D61E086E1DF91CF910C94671E0E
:1021D0008FB9779BFECF08958FEF0E94E8108FB1E3
:1021E0000895FF920F931F93CF93DF93C82FD42F9F
:1021F000152F062FF72E80917E04811104C083E5F0
:102200008DB91EB804C080E58DB981E08EB9C7FFD5
:1022100009C040E050E0BA0187E70E94F110823027
:1022200070F5CF7761E084E00E94671E0E94EC1099
:1022300060E084E00E94671E0E94EC108C2F0E94D8
:10224000E8108F2D0E94E810802F0E94E810812F47
:102250000E94E8108D2F0E94E810C03421F0C8348D
:1022600021F487E803C085E901C081E00E94E810FD
:10227000CAE00E94EC1087FF02C0C150D1F7DF9185
:10228000CF911F910F91FF900895EF92FF920F93BE
:102290001F93CF93DF931F92CDB7DEB700917C04DD
:1022A00010917D040E3F8FEF180731F080E00E94FF
:1022B000E81001501109F6CF0E94EC108F718530A3
:1022C00019F011E090E019C008E813E180E9E82E68
:1022D000FF24F3940E94EC108F3F49F00115110583
:1022E00031F0C7010197F1F701501109F3CF81E0F7
:1022F00090E0012B09F080E0182F61E084E09983E1
:102300000E94671E0E94EC109981812F0F90DF912F
:10231000CF911F910F91FF90EF900895AF92BF92D0
:10232000CF92DF92EF92FF920F931F93CF93DF93A1
:1023300000D000D0CDB7DEB780917E04882331F085
:1023400084E00E94971E892B09F498C061E084E024
:102350000E94671E61E084E00E942B1E61E085E020
:102360000E942B1E61E087E00E942B1E61E084E04A
:102370000E942B1E83E58DB91EB861E084E00E94A7
:10238000671E1AE00E94EC101150E1F740E050E0A7
:10239000BA0180E40E94F1108130C1F54AEA51E0AF
:1023A00060E070E088E40E94F110813089F58E01D0
:1023B0000F5F1F4F780144E0D42ED00E0E94EC1026
:1023C000F70181937F01DE12F9CF8B818130F1F427
:1023D0008C818A3AD9F420E1E22E27E2F22E30E90C
:1023E000A32EBB24B39440E050E060E070E489EE9B
:1023F0000E94F110811147C0EF2841F040E050E009
:10240000BA018AE70E94F110882301F110E029C087
:1024100040E050E0BA0189EE0E94F110823018F0DD
:1024200011E001E402C012E009EE80E1E82E87E24B
:10243000F82E90E9C92EDD24D39440E050E0BA0193
:10244000802F0E94F110811134C026C00E94EC1030
:10245000F80181938F01DE12F9CF898186FD11C0C9
:1024600014E010937E0461E084E00E94671E0E94E5
:10247000EC1081E0112331F180E024C00E9445116D
:1024800065CF1CE0EECFC5010197F1F7F1E0EF1A3F
:10249000F10809F4BBCFA7CFEF2809F4B7CF40E08C
:1024A00052E060E070E080E50E94F1108111AECF53
:1024B000D8CFC6010197F1F781E0E81AF10809F4D5
:1024C000A5CFBBCF0F900F900F900F90DF91CF91C2
:1024D0001F910F91FF90EF90DF90CF90BF90AF9042
:1024E0000895CF92DF92EF92FF920F931F93CF93B5
:1024F000DF937C01690180917E0483FD07C089E040
:10250000440F551F661F771F8A95D1F781E50E94FA
:10251000F110882319F0C1E0D0E031C0C0E4DCE95B
:102520000E94EC108F3F19F42197D1F7F4CF8E3F22
:1025300091F7C2E0D2E0C01BD10BCC19DD09C11468
:10254000D10431F00E94EC1081E0C81AD108F7CF15
:10255000E114F10449F00E94EC10F70181937F012E
:1025600001501109C1F705C00E94EC10015011097A
:10257000D9F70E94EC102197E1F7C0E0D0E061E0CC
:1025800084E00E94671E0E94EC10CE01DF91CF9183
:102590001F910F91FF90EF90DF90CF900895EF92F1
:1025A000FF920F931F93CF93DF930097C9F07A01A7
:1025B000EC01E114F104A9F100917C0410917D0477
:1025C0000115110571F189910E94E810015011095E
:1025D00010937D0400937C0481E0E81AF108E9CFB0
:1025E0004115510561057105F9F080917E0483FD67
:1025F00007C089E0440F551F661F771F8A95D1F7E2
:1026000088E50E94F110811117C08FEF0E94E81039
:102610008EEF0E94E81080E092E090937D0480931A
:102620007C0480E090E00AC0DF91CF911F910F9170
:10263000FF90EF900C94451181E090E0DF91CF91F5
:102640001F910F91FF90EF9008950F931F93E091CA
:102650007F04F09180049B01AC01225031094109B3
:10266000510986819781A085B1850297A109B10999
:10267000281739074A075B0768F4A281B0E00E9477
:1026800039250289138924893589600F711F821FBA
:10269000931F03C060E070E0CB011F910F9108957C
:1026A0000F931F93CF93DF93DC01E0917F04F091B0
:1026B000800411961C921E9214966D917D918D91BD
:1026C0009C911797613071058105910569F106812B
:1026D000178120853185601771078207930720F5E0
:1026E000611571058105910539F42081233021F4AC
:1026F0006685778580899189ED01688779878A87E2
:102700009B87611571058105910519F00E942513BC
:1027100004C066857785808991896C877D878E87DF
:102720009F8780E090E002C081E090E0DF91CF9150
:102730001F910F910895CF92DF92EF92FF920F9326
:102740001F93CF93DF9300D000D0CDB7DEB7E091D9
:102750007F04F0918004623071058105910508F4D1
:1027600059C0C680D780E084F1846C157D058E0544
:102770009F0508F04FC02081223019F0233001F16D
:1027800049C09B013327220F331FBB27A92F982F46
:10279000872FC284D384E484F584AC01BD014C0D41
:1027A0005D1D6E1D7F1D02E010E0CE0101960E94AE
:1027B0007112892B79F569817A8180E090E02EC0D1
:1027C0009B012F773327220F331F220F331FDC018A
:1027D000CB0157E0B695A795979587955A95D1F770
:1027E000C284D384E484F584AC01BD014C0D5D1D2D
:1027F0006E1D7F1D04E010E0CE0101960E94711253
:10280000892B41F489819A81AB81BC81BC01CD01C6
:102810009F7004C061E070E080E090E00F900F9046
:102820000F900F90DF91CF911F910F91FF90EF903C
:10283000DF90CF900895CF92DF92EF92FF920F93A7
:102840001F93CF93DF93EC016A017B0102E010E05C
:102850002EEF31E00E947112892BA9F488819981B1
:1028600085359A4A91F426E330E0B701A601CE01FE
:102870000E947112892B59F4888199818634914480
:1028800031F480E015C083E013C082E011C002E0A3
:1028900010E022E530E0B701A601CE010E947112DE
:1028A000892B29F4888199818634914451F381E000
:1028B000DF91CF911F910F91FF90EF90DF90CF901C
:1028C00008952F923F924F925F926F927F928F92D4
:1028D0009F92AF92BF92CF92DF92EF92FF920F93AF
:1028E0001F93CF93DF93CDB7DEB7A4970FB6F894BD
:1028F000DEBF0FBECDBF1C011092800410927F047A
:102900000E948E1180FDA0C040E050E0BA01CE01CF
:1029100001960E941B14813009F500E110E02EEBB6
:1029200031E040E050E0BA01CE0101960E94711200
:10293000892B19F081E090E0C1C08D81811103C025
:1029400086E090E0BBC049845A846B847C84B301E8
:10295000A201CE0101960E941B1403C0412C512CF0
:102960003201833039F38111EBCF04E210E02DE026
:1029700030E0B301A201CE0101960E947112892BB1
:10298000C9F62A853B8540E050E021153105410517
:10299000510521F4288D398D4A8D5B8DAC81B0E0D5
:1029A0000E9439254B015C010A811B8120E030E047
:1029B000400E511E621E731EF101428653866486CC
:1029C000758649814283CD80DE80D582C4828F8125
:1029D0009885A0E0B0E00097A105B10521F48C89AD
:1029E0009D89AE89BF8954E0D694C7945A95E1F782
:1029F000E12CF12C801B910BA20BB30B88199909C8
:102A0000AA09BB09BC01CD016C197D098E099F097A
:102A1000242F30E040E050E00E941125DA01C90186
:102A20000296A11DB11DF10186839783A087B1870E
:102A3000BA01A901465F5F40610971094F3F5F4ECE
:102A400061057105A0F103C082E090E037C0873FC7
:102A50009F4FA105B10508F473CF83E0F101808396
:102A6000833029F488A199A1AAA1BBA107C0D501EF
:102A7000C401840D951DA61DB71DF101868797879A
:102A8000A08BB18BC40CD51CE61CF71CC80CD91C40
:102A9000EA1CFB1CF101C28AD38AE48AF58A1182FE
:102AA0003092800420927F0480E090E007C0873F4E
:102AB0009F4FA105B10588F682E0D0CFA4960FB64E
:102AC000F894DEBF0FBECDBFDF91CF911F910F9164
:102AD000FF90EF90DF90CF90BF90AF909F908F903E
:102AE0007F906F905F904F903F902F9008954F92FE
:102AF0005F926F927F929F92AF92BF92CF92DF923E
:102B0000EF92FF920F931F93CF93DF93CDB7DEB772
:102B1000EC970FB6F894DEBF0FBECDBFC0907F0418
:102B2000D0908004C114D10409F4DCC0D601119600
:102B30001C929E012F5C3F4F3CA32BA39C0179016B
:102B4000F90180812F5F3F4F8032C9F38F3209F442
:102B500079011DA21EA21FA218A6D7018C91803256
:102B600038F0A0E29A2E5E01BCE0AB0EB11C6AC048
:102B7000CE0181960E9450131982009709F47DC0FE
:102B80002CC180E090E028E031E0390FD701A90F97
:102B9000B11D9C91913208F060C0E30EF11C81E000
:102BA000913208F080E08387CE0181960E94501315
:102BB000009709F012C129A13AA12F703327F5E03F
:102BC000220F331FFA95E1F74DA55EA56FA578A9F1
:102BD00000E210E0CE0101960E947112892B09F0EB
:102BE000ECC08981882309F4EBC08C8583FD86C005
:102BF0006BA17CA1FE0131969B01EA15FB0509F052
:102C000076C0FB019385911138C084FFD9C0E09153
:102C10007F04F09180048081833009F0DAC08D89CF
:102C20009E89A0E0B0E0DC01992788274B8D5C8D60
:102C300060E070E0842B952BA62BB72B8DA39EA371
:102C4000AFA3B8A7EBA1FCA1DF01CF010B96A8179A
:102C5000B90709F496CF9D92FACF9F3209F49DCF20
:102C60009E3209F4B0C0821708F097CFDF01A80F99
:102C7000B11D9C938F5F932F87CF89818823A1F10A
:102C80008C8584FD31C0E0917F04F09180048081C7
:102C9000833041F48D899E89A0E0B0E0DC01992762
:102CA000882703C080E090E0DC014B8D5C8D60E004
:102CB00070E0842B952BA62BB72BF601868F978F70
:102CC000A0A3B1A38D8D9E8DAF8DB8A1828F938F60
:102CD000A48FB58F168A178A108E118E81E081839A
:102CE00080E003C085E001C083E090E076C04191C0
:102CF000D9019D919D01491709F47FCF60907F0410
:102D00007090800409A11AA10F5F1F4F09F458C0E9
:102D10008DA59EA5AFA5B8A90097A105B10509F499
:102D20004FC098012F703327232B09F043C0019621
:102D3000A11DB11D8DA79EA7AFA7B8AB69A57AA5A8
:102D40008BA59CA5611571058105910539F4F301E9
:102D5000848195810817190798F52CC0D301129624
:102D60002C9130E0A901415051099801E4E03695D9
:102D70002795EA95E1F724233523232BD9F40E94E4
:102D80009B136230710581059105B8F0F30146800F
:102D9000578060847184641575058605970580F4F5
:102DA00069A77AA78BA79CA70E9425136DA77EA76A
:102DB0008FA798AB1AA309A3FECE81E090E00DC0C7
:102DC00083E090E00AC0283009F0E7CE88E02BE0ED
:102DD00052CF80E090E0DC0129CFEC960FB6F8945A
:102DE000DEBF0FBECDBFDF91CF911F910F91FF903E
:102DF000EF90DF90CF90BF90AF909F907F906F90BB
:102E00005F904F9008954F925F926F927F928F9252
:102E10009F92AF92BF92CF92DF92EF92FF920F9369
:102E20001F93CF93DF934C016B015A01C0917F0434
:102E3000D0918004FA0111821082209709F4A1C078
:102E4000898180FFA1C08A8D9B8DAC8DBD8D4E89FF
:102E50005F89688D798D841B950BA60BB70BA60136
:102E600060E070E084179507A607B70708F46C01C7
:102E70003401412C32E0532EC114D10409F47EC038
:102E80008E899F89A88DB98DAC01BD0151706627CF
:102E90007727452B462B472BD1F5FA80FA94AC01C6
:102EA000BD0129E076956795579547952A95D1F705
:102EB000F422C1F4892B8A2B8B2B29F46E8D7F8D04
:102EC00088A199A106C06AA17BA18CA19DA10E94A5
:102ED0009B136230710581059105A0F16AA37BA364
:102EE0008CA39DA36AA17BA18CA19DA10E94251307
:102EF000611571058105910529F1DC01CB018F0D6B
:102F0000911DA11DB11D8EA39FA3A8A7B9A72E89AE
:102F10003F893170C201821B930B76018C159D0590
:102F200008F47C014EA15FA168A579A581149104E4
:102F300011F0C30102C080E090E087010E9471128D
:102F4000892B21F0198281E090E020C08E899F8931
:102F5000A88DB98D8E0D9F1DA11DB11D8E8B9F8BD0
:102F6000A88FB98F6E0C7F1CCE18DF08F501808109
:102F70009181E80EF91EF182E0827ECF80E090E040
:102F800005C085E090E002C084E090E0DF91CF9141
:102F90001F910F91FF90EF90DF90CF90BF90AF9077
:102FA0009F908F907F906F905F904F9008954F9279
:102FB0005F926F927F928F929F92AF92BF92CF92C9
:102FC000DF92EF92FF920F931F93CF93DF936C01E9
:102FD0008B015A01C0917F04D0918004FA011182C3
:102FE0001082209709F4C8C0898180FFC8C080740E
:102FF000672B71F4882309F4C9C040E050E0BA019E
:1030000080E090E00E94CF12892B09F0BBC0BEC0C7
:1030100081110AC08E899F89A88DB98D88279E7FCE
:103020008E8B9F8BA88FB98F8A8D9B8DAC8DBD8D1C
:103030004E895F89688D798D841B950BA60BB70B24
:10304000A80160E070E084179507A607B70708F4A9
:103050008C01812C32E0932E0115110509F499C0E1
:103060008E899F89A88DB98D9C013170232B09F021
:1030700046C0FA80FA94AC01BD0129E076956795C7
:10308000579547952A95D1F7F422C9F4892B8A2BB5
:103090008B2B29F46E8D7F8D88A199A106C06AA122
:1030A0007BA18CA19DA10E949B13623071058105BB
:1030B000910508F467C06AA37BA38CA39DA36AA1B2
:1030C0007BA18CA19DA10E9425136115710581052D
:1030D000910509F457C0AB01BC014F0D511D611D95
:1030E000711D4EA35FA368A779A780E090E00E94BE
:1030F000CF12892B09F046C08981806489838E892B
:103100009F8991709401281B390B78012017310792
:1031100008F479012701612C712CB301A201C601C9
:103120000E94CF12892B71F54E895F89688D798D48
:10313000440D551D661D771D4E8B5F8B688F798FF3
:10314000CE0CDF1C0E191F09F50180819181E80E5C
:10315000F91EF182E0825170452B09F07DCF40E0ED
:1031600050E0BA0180E090E00E94CF12892B51F428
:1031700089818F7B898370CF85E090E00CC084E0EB
:1031800090E009C0198281E090E005C089818F7BC1
:10319000898380E090E0DF91CF911F910F91FF90A4
:1031A000EF90DF90CF90BF90AF909F908F907F90E7
:1031B0006F905F904F9008954F925F926F927F92C1
:1031C0008F929F92AF92BF92CF92DF92EF92FF9237
:1031D0000F931F93CF93DF9300D000D0CDB7DEB70E
:1031E000362F272F00917F041091800401151105BF
:1031F00009F4E7C0D80111964C91119740FFE4C043
:103200005A964D915D916D917C915D97C32ED22E12
:103210007C014C155D056E057F0510F46A017B018C
:10322000F80146885788608C718C168A178A108E30
:10323000118EC114D104E104F10409F4C8C08280E4
:10324000912CA12CB12C39E0880C991CAA1CBB1C18
:103250003A95D1F7411451046104710409F43FC057
:10326000B1E04B1A510861087108C701B6016150FD
:10327000710981099109A50194010E9411252983F1
:103280003A834B835C83C301B201A50194010E9480
:10329000112589819A81AB81BC8182179307A4078C
:1032A000B507E8F088279927DC0188199909AA0948
:1032B000BB09482259226A227B22D80156964D9298
:1032C0005D926D927C925997C418D508E608F7086C
:1032D00092966D917D918D919C91959730C0F8015A
:1032E000668D778D80A191A162A373A384A395A31A
:1032F00026C00E949B13623071058105910528F15B
:10330000F8014680578060847184641575058605D0
:103310009705D8F4F80162A373A384A395A3468804
:103320005788608C718C480C591C6A1C7B1C468A1F
:10333000578A608E718EC818D908EA08FB088C1469
:103340009D04AE04BF04A8F204C0D80111961C92DB
:1033500016C0F80186889788A08CB18CC80CD91C3F
:10336000EA1CFB1CC68AD78AE08EF18E0E942513C8
:10337000611571058105910529F4F801118281E03B
:1033800090E027C029E0F694E794D794C7942A9553
:10339000D1F7D80112962C9130E021503109490122
:1033A000330FAA08BB08C820D920EA20FB20C60E8C
:1033B000D71EE81EF91EF801C6A2D7A2E0A6F1A604
:1033C00006C085E090E005C084E090E002C080E0A7
:1033D00090E00F900F900F900F90DF91CF911F9181
:1033E0000F91FF90EF90DF90CF90BF90AF909F90A4
:1033F0008F907F906F905F904F9008958091B1046F
:1034000090E02091B204821B910908959091B2043A
:103410008091B104981750F4E92FF0E0ED54FB4F80
:10342000208130E09F5F9093B20402C02FEF3FEF06
:10343000C9010895E091B2048091B104E81730F415
:10344000F0E0ED54FB4F808190E008958FEF9FEF07
:1034500008950895CF92DF92EF92FF920F931F93FA
:10346000CF93DF937C01262F972F8A0180918D04C3
:10347000882391F0C62FD72F6E01C40ED51ECC1510
:10348000DD0571F06991D701ED91FC910190F0811A
:10349000E02DC7010995F3CF642F822F0E94DE1B18
:1034A000C801DF91CF911F910F91FF90EF90DF90B6
:1034B000CF900895CF93DF931F92CDB7DEB7698386
:1034C00020918D042223D1F020918E04203240F0EF
:1034D00021E030E0FC013383228380E090E015C0DE
:1034E00080918F04E82FF0E0E057FB4F99819083A3
:1034F0008F5F80938F0480938E0405C061E0CE01BE
:1035000001960E94DE1B81E090E00F90DF91CF9149
:103510000895FC011382128288EE93E0A0E0B0E0EF
:1035200084839583A683B78383ED93E0918380831F
:1035300008951092B2041092B10410928F04109268
:103540008E040C94301B81E080938D046093B00452
:1035500010928F0410928E0408950C94A31A0F9366
:10356000062F21E040918E0460E974E08091B00460
:103570000E948B1B10928F0410928E0410928D0467
:103580000F9108954F925F926F927F92AF92BF9288
:10359000CF92EF92FF920F931F93CF93DF935C0133
:1035A000F62ED42F28013901EE2021F10E94A31A12
:1035B000CE2DC43008F0C3E0C150C0F0D501ED916C
:1035C000FC91B8E0CB9FC0011124A301920104C07B
:1035D00056954795379527958A95D2F7CA01B9012F
:1035E0000190F081E02DC5010995E6CF60E0C501AD
:1035F0000E94AF1A4D2FD13208F040E22C2D63EB20
:1036000074E08F2D0E94461B1092B2048093B10487
:10361000DF91CF911F910F91FF90EF90CF90BF90CE
:10362000AF907F906F905F904F900895CF92EF9200
:103630000F931F93C22EE12C00E010E098010E942E
:10364000C21A1F910F91EF90CF90089521E00C9432
:10365000161B61E00C94AF1A81E894E00C94891A6F
:103660001092400581E080933E0510923D0561E097
:1036700081E10E94671E61E080E10E94671E089858
:10368000099888E480B985E486BF0895413208F03E
:1036900040C0909140059111FCCF91E0909340057E
:1036A00020933E052FEF2093D30410921805240F8A
:1036B0002093170590933F0590913F05880F892B24
:1036C00080933F0580913D05813051F410923D0576
:1036D00080913F0583B906B603FCFACF85EC01C0A3
:1036E00085EE86BF809140058130E1F38091180519
:1036F000841710F44091180529E135E0FB01D90148
:103700008A2F821B841718F48D918193F9CF842F0F
:10371000089580E008950F93413208F047C09091DA
:1037200040059111FCCF32E03093400500933E05F7
:103730003FEF3093D3041092180540931705FB0117
:1037400069E175E0DB013A2F361B341718F431912B
:103750003D93F9CF10923F0530913F05880F832BA1
:1037600080933F0580913D05813051F410923D05D5
:1037700080913F0583B906B603FCFACF85EC01C002
:1037800085EE86BF222321F0809140058230D1F35F
:103790008091D3048F3F79F08091D304803241F03F
:1037A0008091D304803331F094E005C091E003C0F0
:1037B00092E001C093E0892F0F910895613298F44F
:1037C00020914005243089F46093F504FC0127EF33
:1037D00034E0D9018A2F821B861718F481918D93CA
:1037E000F9CF80E0089581E0089582E0089585EDA5
:1037F00086BF06B604FCFDCF10924005089585EC07
:1038000086BF1092400508951F920F920FB60F9237
:1038100011242F933F934F935F936F937F938F93D5
:103820009F93AF93BF93EF93FF9381B1887F8036CF
:1038300009F49BC078F5883209F45DC090F48031BA
:1038400009F456C038F4882309F4EEC0883009F42E
:103850004FC0EEC0883109F44EC0803209F45EC01A
:10386000E7C0803409F468C058F4803309F456C0C6
:10387000883309F0DDC08093D3040E94FF1BD8C0B9
:10388000803509F44EC0883509F45BC0883409F0EE
:10389000CFC0CCC0883909F4BFC0A8F4883709F478
:1038A00064C038F4883609F460C0803709F45DC01C
:1038B000BFC0883809F4B0C0803909F45CC08038D2
:1038C00009F0B6C058C0803B09F47FC038F4803A94
:1038D00009F462C0883A09F478C0AAC0803C09F4AF
:1038E0009EC0883C09F49BC0883B09F483C0A0C0FB
:1038F00080913F0510C09091180580911705981789
:1039000058F5E091180581E08E0F80931805F0E0DE
:10391000E75EFA4F808183B985EC7FC08093D30442
:1039200085C0E091180581E08E0F8093180583B162
:10393000F0E0E75EFA4F80839091180580911705BB
:1039400068C0E091180581E08E0F8093180583B15F
:10395000F0E0E75EFA4F808380913E05811166C0FA
:1039600081E080933D0584EA5BC083E0809340055D
:103970001092D404D1CF8091D404803208F04CC08E
:10398000E091D40481E08E0F8093D40483B1F0E001
:10399000EB52FB4F8083C0CF0E94FF1B8091D40469
:1039A000803230F4E091D404F0E0EB52FB4F10820F
:1039B0006091D40470E0E0913905F0913A0585ED0D
:1039C00094E009951092D40433C084E080934005BC
:1039D0001092F6041092F504E0913B05F0913C053D
:1039E00009958091F504811105C081E08093F5046B
:1039F0001092F704E091F60481E08E0F8093F604B4
:103A0000F0E0E950FB4F808183B99091F6048091FA
:103A1000F504981708F480CF85E886BF09C085ECC7
:103A200086BF1092400504C01092D3040E94F71B79
:103A3000FF91EF91BF91AF919F918F917F916F9186
:103A40005F914F913F912F910F900FBE0F901F905C
:103A500018951F920F920FB60F9211242F933F9338
:103A60008F939F93AF93BF938091420590914305AD
:103A7000A0914405B09145053091410523E0230F05
:103A80002D3720F40196A11DB11D05C026E8230F96
:103A90000296A11DB11D209341058093420590938C
:103AA0004305A0934405B093450580914605909148
:103AB0004705A0914805B09149050196A11DB11D8A
:103AC0008093460590934705A0934805B093490518
:103AD000BF91AF919F918F913F912F910F900FBE0A
:103AE0000F901F9018952FB7F89460914205709130
:103AF000430580914405909145052FBF08953FB738
:103B0000F8948091460590914705A0914805B091A1
:103B1000490522B708B600FE05C02F3F19F00196EF
:103B2000A11DB11D3FBFBA2FA92F982F8827820F43
:103B3000911DA11DB11DBC01CD0142E0660F771F93
:103B4000881F991F4A95D1F708958F929F92AF923F
:103B5000BF92CF92DF92EF92FF926B017C010E94A5
:103B60007F1D4B015C01C114D104E104F10401F19A
:103B70000E94DA220E947F1DDC01CB01881999097D
:103B8000AA09BB09883E9340A105B10560F321E075
:103B9000C21AD108E108F10888EE880E83E0981E69
:103BA000A11CB11CC114D104E104F10419F7DBCF4D
:103BB000FF90EF90DF90CF90BF90AF909F908F904D
:103BC0000895019739F0880F991F880F991F029760
:103BD0000197F1F70895789483B7826083BF83B724
:103BE000816083BF83B7806483BF83B7886083BFEE
:103BF00089B7816089BF1EBC8EB582608EBD8EB5CF
:103C000081608EBD8FB581608FBD85B5846085BDB7
:103C100085B5806485BD329A319A309A379A1AB840
:103C20000895833049F018F4813089F00895843084
:103C300031F0863041F008958FB58F7702C08FB58F
:103C40008F7D8FBD089585B58F7D85BD089583B720
:103C50008F7D83BF0895CF93DF9390E0FC01E45004
:103C6000FB4F2491FC01E45EFA4F8491882361F1BB
:103C700090E0880F991FFC01E05BFA4FC591D49149
:103C8000FC01EA5BFA4FA591B491611109C09FB79D
:103C9000F8948881209582238883EC912E230BC091
:103CA000623061F49FB7F8943881822F8095832326
:103CB0008883EC912E2B2C939FBF06C08FB7F8946E
:103CC000E8812E2B28838FBFDF91CF9108951F931A
:103CD000CF93DF93282F30E0F901E452FB4F84911A
:103CE000F901E450FB4FD491F901E45EFA4FC4911D
:103CF000CC23C9F0162F81110E94111EEC2FF0E089
:103D0000EE0FFF1FEA5BFA4FA591B4918FB7F894BD
:103D1000111105C09C91ED2FE095E92302C0EC91B3
:103D2000ED2BEC938FBFDF91CF911F910895CF932F
:103D3000DF93282F30E0F901E452FB4F8491F90121
:103D4000E450FB4FD491F901E45EFA4FC491CC23C7
:103D500091F081110E94111EEC2FF0E0EE0FFF1F79
:103D6000E45CFA4FA591B491EC91ED2381E090E0F1
:103D700021F480E002C080E090E0DF91CF910895CF
:103D8000FC01918D228D892F90E080589F4F821BDE
:103D900091098F7799270895FC01918D828D98174D
:103DA00031F0828DE80FF11D858D90E008958FEF41
:103DB0009FEF0895FC01918D828D981761F0828D9F
:103DC000DF01A80FB11D5D968C91928D9F5F9F774B
:103DD000928F90E008958FEF9FEF089584E490E232
:103DE000892B49F08DEF94E0892B29F00E94442023
:103DF00081110C94FD040895FC01848DDF01A80F4E
:103E0000B11DA356BF4F2C91848D90E001968F7306
:103E10009927848FA689B7892C93A089B1898C9121
:103E200080648C93938D848D981306C00288F389E7
:103E3000E02D80818F7D80830895CF93DF93EC0107
:103E4000888D8823C9F0EA89FB89808185FD05C0BA
:103E5000A889B9898C9186FD0FC00FB607FCF5CFF4
:103E6000808185FFF2CFA889B9898C9185FFEDCF3C
:103E7000CE010E94FC1EE7CFDF91CF910895EF9213
:103E8000FF920F931F93CF93DF93EC0181E0888F14
:103E90009B8D8C8D981305C0E889F989808185FDFB
:103EA00024C0F62E0B8D10E00F5F1F4F0F731127EC
:103EB000E02E8C8DE8120CC00FB607FCFACFE88913
:103EC000F989808185FFF5CFCE010E94FC1EF1CFDC
:103ED0008B8DFE01E80FF11DE356FF4FF0820B8F33
:103EE000EA89FB898081806207C0EE89FF8960834F
:103EF000E889F98980818064808381E090E0DF91A6
:103F0000CF911F910F91FF90EF900895CF92DF9284
:103F1000EF92FF921F93CF93DF93EC016A017B0135
:103F2000122FE889F98982E080834115514E61059D
:103F30007105B1F060E079E08DE390E0A7019601B2
:103F40000E941125DA01C9010197A109B109B695AD
:103F5000A79597958795AC01411580E15807A8F082
:103F6000E889F989108260E874E88EE190E0A701A1
:103F700096010E941125BA01A90141505109610918
:103F800071097695679557954795EC85FD85508322
:103F9000EE85FF854083188E1068EC89FD891083BB
:103FA000EA89FB89808180618083EA89FB8980813D
:103FB00088608083EA89FB89808180688083EA89C0
:103FC000FB8980818F7D8083DF91CF911F91FF904E
:103FD000EF90DF90CF9008951F920F920FB60F923F
:103FE00011242F938F939F93EF93FF93E0915A05A2
:103FF000F0915B058081E0916005F091610582FDA3
:1040000012C09081809163058F5F8F772091640546
:10401000821751F0E0916305F0E0E65BFA4F958F6F
:104020008093630501C08081FF91EF919F918F91F3
:104030002F910F900FBE0F901F9018951F920F9207
:104040000FB60F9211242F933F934F935F936F936B
:104050007F938F939F93AF93BF93EF93FF938AE4E4
:1040600095E00E94FC1EFF91EF91BF91AF919F914F
:104070008F917F916F915F914F913F912F910F9011
:104080000FBE0F901F9018958AE495E00E94C01E05
:1040900021E0892B09F420E0822F0895EAE4F5E07D
:1040A0001382128288EE93E0A0E0B0E084839583CF
:1040B000A683B78383EE93E09183808380E490E0CE
:1040C0009587848729E230E0378726872BE230E026
:1040D000318B208B2AE230E0338B228B958B848BC3
:1040E0008CE290E0978B868B118E128E138E148E3D
:1040F0000895CF92DF92EF92FF920F931F93CF9389
:10410000DF936C017A018B01C0E0D0E0CE15DF05B2
:1041100089F0D8016D918D01D601ED91FC9101904E
:10412000F081E02DC6010995892B11F47E0102C0B2
:104130002196ECCFC701DF91CF911F910F91FF9096
:10414000EF90DF90CF9008956115710579F0FB0134
:1041500001900020E9F73197AF01461B570BDC01B6
:10416000ED91FC910280F381E02D099480E090E0D4
:104170000895EF92FF920F931F93CF93DF938C01DB
:104180007B01C0E0D0E0F701EC0FFD1F64916623D6
:1041900061F0D801ED91FC910190F081E02DC80112
:1041A0000995892B11F02196EECFCE01DF91CF91A9
:1041B0001F910F91FF90EF9008950C94A420DC01C3
:1041C000ED91FC910190F081E02D09946FEE73E088
:1041D0000C94A4200F931F93CF93DF93EC010E94C4
:1041E000B9208C01CE010E94E620800F911FDF9143
:1041F000CF911F910F9108950F931F93CF93DF934A
:10420000EC010E94A4208C01CE010E94E620800FC8
:10421000911FDF91CF911F910F9108950F931F93DD
:10422000CF93DF93EC010E94DF208C01CE010E942E
:10423000E620800F911FDF91CF911F910F9108957C
:104240004F925F926F927F92EF92FF920F931F9324
:10425000CF93DF93CDB7DEB7A1970FB6F894DEBF4B
:104260000FBECDBF7C01FA01CB0119A2223008F4A8
:104270002AE08E010F5D1F4F422E512C612C712CB4
:10428000BF01A30192010E941125F901CA01015049
:1042900011096A3014F4605D01C0695CD8016C9347
:1042A000232B242B252B61F7B801C7010E94A420E2
:1042B000A1960FB6F894DEBF0FBECDBFDF91CF91B0
:1042C0001F910F91FF90EF907F906F905F904F90B4
:1042D0000895CF92DF92EF92FF920F931F93CF93A7
:1042E000DF93EC016A017B012115310579F4E88146
:1042F000F9810190F081E02D642FDF91CF911F9122
:104300000F91FF90EF90DF90CF9009942A30310504
:10431000E9F477FF1AC06DE20E94DF208C01442788
:104320005527BA014C195D096E097F092AE0CE01B3
:104330000E942021800F911FDF91CF911F910F913B
:10434000FF90EF90DF90CF9008952AE0B701A6018B
:10435000CE01DF91CF911F910F91FF90EF90DF90F1
:10436000CF900C9420219A01AB01770F660B770B4D
:104370000C9469212115310541F4DC01ED91FC918A
:104380000190F081E02D642F09940C9420219A0172
:10439000462F50E060E070E00C94BA21FC0180816F
:1043A00091810C947023CF93DF93EC0188819981E4
:1043B000009711F00E947023198218821D821C82BE
:1043C0001B821A82DF91CF9108950F931F93CF9391
:1043D000DF93EC018B016F5F7F4F888199810E9491
:1043E0000824009731F0998388831B830A8381E036
:1043F00001C080E0DF91CF911F910F910895CF937D
:10440000DF93EC0188819981892B29F08A819B8136
:104410008617970760F4CE010E94E521882341F0BA
:104420008C819D81892B19F4E881F981108281E0CA
:10443000DF91CF910895EF92FF920F931F93CF9347
:10444000DF93EC017B018A01BA010E94FF218111F7
:1044500004C0CE010E94D32107C01D830C83B70185
:10446000888199810E949725CE01DF91CF911F917C
:104470000F91FF90EF900895FC011182108213823A
:104480001282158214826115710551F0FB010190B1
:104490000020E9F73197AF01461B570B0C941B2204
:1044A0000895CF93DF93EC016115710559F0FB017D
:1044B00001900020E9F73197AF01461B570B0E948E
:1044C0001B2202C00E94D321CE01DF91CF9108951B
:1044D000FC01248135816217730748F48081918142
:1044E000009729F0FC01E60FF71F8081089580E016
:1044F0000895BF92CF92DF92EF92FF920F931F9396
:10450000CF93DF937C016B018A01E9012417350702
:1045100020F4812F8901C42FD82F61EF73E0C701E8
:104520000E943C22D60114968D919C9115970817F4
:104530001907D0F48C179D0708F4EC01D601ED9112
:10454000FC911197EC0FFD1FB08010824D915C9192
:10455000BA01600F711FC7010E945122D601ED916F
:10456000FC91EC0FFD1FB082C701DF91CF911F912D
:104570000F91FF90EF90DF90CF90BF900895FC01D6
:1045800080819181009711F00C94672560E070E0C4
:10459000CB01089508950E94EB1D0E94CA220E943B
:1045A000BF0CCEEEDEE10E9425082097E1F30E94C9
:1045B000EE1EF9CF0895CF93DF938230910510F46A
:1045C00082E090E0E0912906F0912A0620E030E0B8
:1045D000C0E0D0E0309711F1408151814817590770
:1045E000C0F04817590761F482819381209719F030
:1045F0009B838A832BC090932A068093290626C02A
:104600002115310519F04217530718F49A01BE011C
:10461000DF01EF010280F381E02DDCCF21153105B0
:1046200009F1281B390B2430310590F412968D9135
:104630009C9113976115710521F0FB01938382838F
:1046400004C090932A0680932906FD01329644C047
:10465000FD01E20FF31F81939193225031092D93B5
:104660003C933AC02091270630912806232B41F431
:1046700020917A0030917B00309328062093270602
:1046800020917800309179002115310541F42DB742
:104690003EB740917C0050917D00241B350BE0918A
:1046A0002706F0912806E217F307A0F42E1B3F0B14
:1046B0002817390778F0AC014E5F5F4F2417350794
:1046C00048F04E0F5F1F50932806409327068193B2
:1046D000919302C0E0E0F0E0CF01DF91CF91089527
:1046E0000F931F93CF93DF93009709F48CC0FC01C5
:1046F0003297138212820091290610912A06011521
:10470000110581F420813181820F931F20912706AA
:10471000309128062817390779F5F0932806E09399
:10472000270671C0D80140E050E0AE17BF0750F433
:1047300012962D913C911397AD012115310509F188
:10474000D901F3CF9D01DA01338322836081718126
:10475000860F971F8217930769F4EC01288139812E
:10476000260F371F2E5F3F4F318320838A819B8125
:1047700093838283452B29F4F0932A06E09329063C
:1047800042C01396FC93EE931297ED014991599113
:104790009E01240F351FE217F30771F48081918188
:1047A000840F951F029611969C938E93828193811C
:1047B00013969C938E931297E0E0F0E0D801129646
:1047C0008D919C911397009719F0F8018C01F6CF09
:1047D0008D919C9198012E5F3F4F820F931F2091E6
:1047E0002706309128062817390769F4309729F4ED
:1047F00010922A061092290602C013821282109388
:10480000280600932706DF91CF911F910F910895FD
:104810006F927F928F929F92AF92BF92CF92DF92D0
:10482000EF92FF920F931F93CF93DF93EC010097CA
:1048300089F4CB01DF91CF911F910F91FF90EF9001
:10484000DF90CF90BF90AF909F908F907F906F90B0
:104850000C94DB22FC01E60FF71F9C01225031096A
:10486000E217F30708F4ACC0D9010D911C91119720
:1048700006171707B0F00530110508F49FC0C801EE
:1048800004978617970708F499C002501109061B70
:10489000170B019311936D937C93CF010E947023AA
:1048A0008DC05B01A01AB10A4C01800E911EA0912F
:1048B0002906B0912A0640E050E0E12CF12C109737
:1048C00009F44AC0A815B905D1F56D907C901197EF
:1048D000630182E0C80ED11CCA14DB0480F1A3017D
:1048E0004A195B096A0182E0C80ED11C1296BC907D
:1048F00012971396AC91B5E0CB16D10440F0B2827A
:10490000A38351834083D9016D937C930AC00E5FCA
:104910001F4FC301800F911FF90191838083EB2DFD
:10492000FA2FE114F10431F0D7011396FC93EE93C2
:10493000129744C0F0932A06E09329063FC08D9158
:104940009C9111974817590708F4AC017D01129604
:104950000D90BC91A02DB3CF809127069091280691
:1049600088159905E1F446175707C8F48091780037
:1049700090917900009741F48DB79EB740917C00EB
:1049800050917D00841B950BE817F907C8F4F0934C
:104990002806E0932706F901718360830FC0CB01DD
:1049A0000E94DB227C01009759F0A801BE010E9401
:1049B0008E25CE010E947023C70104C0CE0102C023
:1049C00080E090E0DF91CF911F910F91FF90EF90E9
:1049D000DF90CF90BF90AF909F908F907F906F901F
:1049E0000895991B79E004C0991F961708F0961B4B
:1049F000881F7A95C9F78095089597FB072E16F4BE
:104A0000009407D077FD09D00E94442507FC05D00B
:104A10003EF4909581959F4F0895709561957F4FD5
:104A20000895A1E21A2EAA1BBB1BFD010DC0AA1FEF
:104A3000BB1FEE1FFF1FA217B307E407F50720F007
:104A4000A21BB30BE40BF50B661F771F881F991F82
:104A50001A9469F760957095809590959B01AC01CB
:104A6000BD01CF010895EE0FFF1F0590F491E02DD9
:104A700009940E945825A59F900DB49F900DA49F66
:104A8000800D911D11240895AA1BBB1B51E107C085
:104A9000AA1FBB1FA617B70710F0A61BB70B881FCE
:104AA000991F5A95A9F780959095BC01CD0108955D
:104AB000A29FB001B39FC001A39F700D811D11245F
:104AC000911DB29F700D811D1124911D08951F939A
:104AD000FC0199278827BC01E89411911032E9F371
:104AE000193010F01E30C8F31B3251F01D3249F45A
:104AF000689406C00E949E25610F711D811D911D45
:104B0000119110531A30B0F33EF490958095709542
:104B100061957F4F8F4F9F4F1F910895FB01DC01DF
:104B200002C001900D9241505040D8F70895FB010A
:104B3000DC0101900D920020E1F70895592F482FD4
:104B4000372F262F660F771F881F991F660F771F35
:104B5000881F991F620F731F841F951F660F771F91
:104B6000881F991F0895E199FECF9FBB8EBBE09AE5
:104B700099278DB30895262FE199FECF9FBB8EBB59
:104B80002DBB0FB6F894E29AE19A0FBE01960895F4
:104B900012E0C0EBD2E004C0FE010E943325219652
:0A4BA000C13BD107C9F7F894FFCF1D
:104BAA00134453784E414D2E444154004453784E99
:104BBA0079792E44534B00FF00002B068000300009
:104BCA000D0A494F533A205344206572726F72207E
:104BDA00004449534B5F455252004E4F545F524571
:104BEA00414459004E4F5F46494C45004E4F545F71
:104BFA004F50454E4544004E4F545F454E41424C3E
:104C0A004544004E4F5F46494C4553595354454D10
:104C1A0000554E4B4E4F574E00206F6E20004D4FA1
:104C2A00554E54004F50454E00524541440057528C
:104C3A00495445005345454B00206F7065726174B5
:104C4A00696F6E00202D2046696C653A2000446920
:104C5A00736B20536574200031373A34303A33335A
:104C6A00004D61722031322032303139002F000A72
:104C7A00494F533A20525443206D616E75616C203E
:104C8A0073657474696E673A000A507265737320AB
:104C9A00542F5520746F20696E6372656D656E744A
:104CAA00202B31302F2B31206F7220435220746F0A
:104CBA00206163636570740059656172202D3E201E
:104CCA00004D6F6E7468202D3E2000202020202089
:104CDA0020202020202020200020446179202D3E01
:104CEA002000486F757273202D3E20004D696E7545
:104CFA00746573202D3E20005365636F6E647320C4
:104D0A002D3E2000202E2E2E646F6E65202020203E
:104D1A00202000494F533A2052544320646174655D
:104D2A002F74696D6520757064617465642028004C
:104D3A00494F533A20466F756E64205254432044BB
:104D4A005333323331204D6F64756C652028004926
:104D5A004F533A2052544320445333323331207450
:104D6A00656D70657261747572652073656E736FB7
:104D7A00723A20004300494F533A20525443206369
:104D8A006C6F636B206661696C75726521000A44F9
:104D9A006F20796F752077616E7420736574205265
:104DAA00544320617420494F5320636F6D70696CBE
:104DBA00652074696D65202800293F205B592F4EB4
:104DCA005D203E00494F533A205254432073657484
:104DDA0020617420636F6D70696C652074696D65FC
:104DEA00202D204E6F773A2000340038004D487A43
:104DFA00004F4E004F4646004D487A290020373A68
:104E0A0020546F67676C652043502F4D204175749D
:104E1A006F6578656320282D3E0020383A20436864
:104E2A00616E6765200020393A204368616E6765C4
:104E3A00205254432074696D652F6461746500457E
:104E4A006E74657220796F75722063686F69636525
:104E5A00203E0020204F6B000D202D3E0042415382
:104E6A00494334372E42494E00464F525448313353
:104E7A002E42494E0043504D32322E42494E005185
:104E8A00504D4C44522E42494E0043504D4C4452D0
:104E9A002E434F4D004155544F424F4F542E4249D5
:104EAA004E00494F533A204C6F6164696E67206225
:104EBA006F6F742070726F6772616D202800292EDF
:104ECA002E2E0020446F6E6500494F533A205A38FF
:104EDA00302069732072756E6E696E672066726F14
:104EEA006D206E6F7700494F533A204C6F616469A9
:104EFA006E6720626F6F742070726F6772616D2EB9
:104F0A002E2E001F1C1F1E1F1E1F1F1E1F1E1F00CE
:104F1A000000005A1A2A1AFE19061A1A1A291A0021
:104F2A000000003F1F7920C01EDA1ECC1E1D1F0D77
:0E4F3A000A006E616E00696E66006F7666009A
:107E000001C0A8C011248FE598E09EBF8DBF84B744
:107E100014BE982F9D7009F0CBD085E08EBD82E016
:107E20008BB988E18AB986E880BD80E189B98EE0A6
:107E3000ACD0B89A24E080E39CEF54E041E09DBDD3
:107E40008CBD58BF08B602FEFDCF38B3342738BB0F
:107E5000A8952150A1F7C0E0D0E090D0813469F41A
:107E60008DD0182F96D0123809F46AC0113811F449
:107E700086E001C083E07ED06AC0823411F484E1E0
:107E800003C0853419F485E08CD061C0853541F498
:107E900075D0C82F73D0D0E0D82BCC0FDD1F56C0C3
:107EA000863521F484E07DD080E0E5CF843691F5FD
:107EB00065D064D0D82E62D0F82E00E610E080E6BF
:107EC000D80E5CD0F80181938F01DE12FACF61D019
:107ED000F5E4FF1201C0FFCF40E050E063E0CE01C7
:107EE00039D07E0100E610E0F80140810E5F1F4F9F
:107EF0003196808150E0582B61E0C7012BD0F2E031
:107F0000EF0EF11CD012F0CF40E050E065E0CE0162
:107F100021D01DC0843769F431D030D0F82E2ED056
:107F200038D08E01F80185918F0124D0FA94D1F7D1
:107F30000EC0853739F42DD08EE11CD085E91AD0DA
:107F400082E099CF813511F488E01FD022D080E102
:107F500011D083CFFC010A0167BFE895112407B651
:107F600000FCFDCF667029F0452B19F481E187BF35
:107F7000E89508955D9BFECF8CB908955F9BFECF79
:107F80005C9901C0A8958CB1089598E191BD81BD1F
:107F90000895F4DF803219F088E0F7DFFFCF84E145
:107FA000E9CFCF93C82FEADFC150E9F7CF91F1CFE6
:0C7FB000282E80E0EADFE0E0FF270994C3
:027FFE00020679
:0400000300007E007B
:00000001FF
