:100000000C94B1020C94D9020C94D9020C94D9022C
:100010000C94D9020C94D9020C94D9020C94D902F4
:100020000C94D9020C94D9020C94D9020C942A1D78
:100030000C94D9020C94ED1F0C941F200C94D9023F
:100040000C94D9020C94D9020C94D9020C94051C7E
:100050000C94D90256085D08A009630871088D0840
:100060009B08A908B708C508E40816092A098B09DE
:10007000EA09060A140A3C0A540AA70AAA0A010B4A
:100080000F0C300C300C2D0C300C0D0C300C300CD7
:10009000300CF70B300C300C1B0C2B0C290C300CDB
:1000A000300C300C270C494F533A20436865636B82
:1000B00020534420616E6420707265737320612048
:1000C0006B657920746F207265706561740D0A002C
:1000D000494F533A2043757272656E742000202098
:1000E0002020202020202020202020202020200D23
:1000F000000D0A507265737320435220746F2061A3
:1001000063636570742C2045534320746F206578B9
:100110006974206F7220616E79206F746865722037
:100120006B657920746F206368616E6765002036A7
:100130003A204368616E6765205A383020636C6FDF
:10014000636B20737065656420282D3E0020353A6E
:1001500020694C6F6164000D0A20343A20417574A7
:100160006F626F6F740020333A204C6F6164204FD0
:10017000532066726F6D200020323A20466F7274F1
:10018000680020313A2042617369630020303A20D0
:100190004E6F206368616E6765202800494F533AAF
:1001A0002053656C65637420626F6F74206D6F649B
:1001B00065206F722073797374656D207061726150
:1001C0006D65746572733A00494F533A2043502F5E
:1001D0004D204175746F657865632069732000490F
:1001E0004F533A20466F756E6420475045204F703C
:1001F00074696F6E00494F533A205A383020636C4F
:100200006F636B207365742061742000494F533A0B
:1002100020466F756E6420657874656E6465642031
:1002200073657269616C20527820627566666572CA
:10023000000D0A0A5A38302D4D424332202D2041FC
:100240003034303631380D0A494F53202D20492F94
:100250004F2053756273797374656D202D2053326E
:1002600032303731382D523238303831390D0A00BA
:1002700072023110FD2152FDCDC6FECD3EFFCDF400
:10028000FD3EFFBC2010BD200D21D9FDCDC6FE21B5
:1002900088FDCDC6FE76E521D9FDCDC6FE2175FDD2
:1002A000CDC6FEE1CD4BFFCD3EFFCD3EFFDB01FED7
:1002B000FF20FAE9694C6F6164202D20496E746556
:1002C0006C2D486578204C6F61646572202D205339
:1002D000323030373138005374617274696E672080
:1002E000416464726573733A20004C6F61642065E9
:1002F00072726F72202D2053797374656D2068615E
:100300006C7465640057616974696E6720696E700A
:1003100075742073747265616D2E2E2E0053796E84
:10032000746178206572726F722100436865636B37
:1003300073756D206572726F722100694C6F616414
:100340003A2000416464726573732076696F6C6152
:1003500074696F6E2100F5D5C501FFFF21A3FDCDA6
:10036000C6FECD3EFFCD72FFFE0D28F9FE0A28F530
:10037000FE2028F1CD1AFFCD69FFFE3AC2A3FECDC3
:10038000E1FE571E00CDBEFECDD6FE3EFFB82005D5
:10039000B92002444D7CCDBEFE7DCDBEFECDE1FE3A
:1003A000CDBEFEFE01201ECDE1FECDBEFE7BA72808
:1003B00066CD3EFF21D9FDCDC6FE21C9FDCDC6FECD
:1003C00001FFFF18527AA7282CCDE1FECDBEFEE535
:1003D000C5A701F0FCED42C1E1DA8EFECD3EFF2162
:1003E000D9FDCDC6FE21E1FDCDC6FE01FFFF1827D8
:1003F00077231518D0CDE1FECDBEFE7BA720B2CD70
:100400003EFFC303FECD3EFF21D9FDCDC6FE21BB7D
:10041000FDCDC6FE01FFFFCD3EFF6069C1D1F1C930
:10042000C54F7B915F79C1C9F5E57EFE002806CDF9
:1004300069FF2318F5E1F1C9F5CDE1FE67CDE1FED5
:100440006FF1C9C5CDF4FECB07CB07CB07CB074770
:10045000CDF4FEB0C1C9CD72FFCD1AFFCD06FF307D
:10046000F5CD23FFCD2EFFC9FE47D0FE3030023F31
:10047000C9FE3AD8FE4130023FC937C9FE61D8FEF5
:100480007BD0E65FC9FE3A3802D607D630E60FC900
:10049000F5E60FC630FE3A3802C607CD69FFF1C94E
:1004A000F53E0DCD69FF3E0ACD69FFF1C9E5F57C4A
:1004B000CD58FF7DCD58FFF1E1C9F5C5470F0F0FAE
:1004C0000FCD2EFF78CD2EFFC1F1C9F53E01D3012E
:1004D000F1D300C9DB01FEFFCA72FFC900000001B1
:1004E00000000000000000000403000600000000FF
:1004F00000000000000000000000000001020408ED
:1005000010204080010204081020408001020408ED
:1005100010204080010204081020408002020202E4
:100520000202020204040404040404040303030397
:10053000030303030101010101010101000039006E
:1005400036003300300000003B0038003500320038
:1005500000003A00370034003100E9042D1B4F2021
:10056000F50411241FBECFE5D8E0DEBFCDBF14E0F7
:10057000A0E6B0E0ECE5FBE402C005900D92AA30E5
:10058000B107D9F726E0AAE0B4E001C01D92A73375
:10059000B207E1F712E0C0EBD2E004C02197FE0100
:1005A0000E942025CD3AD107C9F70E94CC220C9495
:1005B000A1250C9400000F931F93CF93DF931F92FC
:1005C000CDB7DEB78C0169830E948C2569816817DD
:1005D00041F0C8010F90DF91CF911F910F910C94C2
:1005E00094250F90DF91CF911F910F9108950C9456
:1005F0008C25DC01ED91FC910190F081E02D0994B6
:100600000F931F93CF93DF93EC010E94741D088119
:1006100019812A813B81DC01CB01801B910BA20B4C
:10062000B30B893C9105A105B10580F080E00E94E3
:10063000981E61E0892B09F060E080E00E94681E4E
:100640000E94741D688379838A839B83DF91CF9195
:100650001F910F9108956AE00E94F22420E1829F89
:10066000900D1124892F0895982F92959F708F7067
:100670002AE0929F800D11240895CF93C82F8A30CD
:1006800030F46EE770E086E595E00E94DE204AE0F7
:1006900050E06C2F86E595E0CF910C94C821CF9364
:1006A000DF93D82FC0E0CD1751F061E08FE00E94BA
:1006B000681E60E08FE00E94681ECF5FF4CFDF917C
:1006C000CF910895CF93DF93D82F81E00E944F03FD
:1006D00060E082E00E94681ECFEFCABB86E38BBB5E
:1006E00082E00E944F031ABACBBB82E00E944F0304
:1006F000CABBDBBB82E00E944F031ABACBBB61E0EE
:1007000082E00E94681E83E00E944F0381E00E9405
:100710004F0360E082E00E94681ECABB83E28BBB8D
:1007200082E00E944F031ABACBBB61E082E00E94D4
:10073000681E83E0DF91CF910C944F030F931F93BA
:10074000CF93DF931F92CDB7DEB7082F81E0998357
:100750000E944F0360E082E00E94681E1FEF1ABBF8
:1007600081E28BBB82E00E944F031ABA1BBB82E07E
:100770000E944F031ABB0BBB83E00E944F03998179
:100780009BBB82E00E944F031ABA1BBB61E082E070
:100790000F90DF91CF911F910F910C94681E60E034
:1007A00086E10E94681E86E00E944F0361E086E1B8
:1007B0000E94681E82E00C944F030E946214089508
:1007C0000E94781508950F931F93CF93DF9300D065
:1007D000CDB7DEB78B01AE014F5F5F4F60E270E0D7
:1007E0000E9404179981F80190830F900F90DF9178
:1007F000CF911F910F9108950F931F93CF93DF9384
:1008000000D0CDB7DEB78B01AE014F5F5F4F0097D1
:1008100019F060E270E004C060E070E080E090E019
:100820000E94D8179981F80190830F900F90DF9163
:10083000CF911F910F910895A0E0B0E0BC01CD01D0
:1008400029E0660F771F881F991F2A95D1F70E940C
:10085000DD1808950F931F93CF93DF93662309F458
:100860007EC08A01C62FD82F60E870E086E595E04B
:100870000E94DE204AE050E06C2F86E595E00E9461
:10088000C8216DEE71E086E595E00E94DE20C33060
:1008900099F038F4C13069F0C230B9F46AE970E017
:1008A00016C0C53079F058F0C63079F463EC70E0CA
:1008B0000EC061E970E00BC064EA70E008C06CEA49
:1008C00070E005C067EB70E002C061ED70E086E5A6
:1008D00095E00E94DE2069ED70E086E595E00E94DB
:1008E000DE20D23091F038F4DD2361F0D13099F47C
:1008F00064EE70E012C0D33059F0D43061F464EF8C
:1009000070E00BC06EED70E008C069EE70E005C0ED
:100910006EEE70E002C061ED70E086E595E00E9449
:10092000DE2069EF70E086E595E00E94DE2001158B
:10093000110559F064E071E086E595E00E94DE2043
:10094000B80186E595E00E94DE206BEB72E086E55B
:1009500095E0DF91CF911F910F910C94FD20DF91D5
:10096000CF911F910F910895CF93C82F6EE071E042
:1009700086E595E00E94DE204AE050E06C2F86E597
:1009800095E00E94C821C05DC093630081E690E0BD
:100990000E94E0036FE074E084E194E00E94E303CE
:1009A00080910F04882399F06DEE71E086E595E063
:1009B0000E94DE2064E174E086E595E00E94DE207E
:1009C0006BEB72E086E595E0CF910C94DE20CF9141
:1009D000089568E171E082E894E00E943D2261E2BE
:1009E00071E08CE794E00C943D228CE794E00E9447
:1009F000CF2182E894E00C94CF2186E595E00E9417
:100A0000C11E892B41F080916E04882321F060E0A3
:100A100081E00C94681E089586E595E00E94C11E51
:100A2000181619062CF486E595E00E94DB1EF4CF1B
:100A300066EA70E086E595E00E94EB2086E595E0A9
:100A40000E94C11E18161906CCF70895EF920F9355
:100A5000CF93DF931F92CDB7DEB768E670E08DE8E5
:100A600094E029830E94AE1A60E070E08DE894E083
:100A70000E94F902809164040E942B03682F8DE884
:100A800094E00E945B1A809163040E942B03682FFC
:100A90008DE894E00E945B1A809162040E942B030F
:100AA000682F8DE894E00E945B1A61E070E08DE8A9
:100AB00094E00E94F9022981822F0E942B03682F63
:100AC0008DE894E00E945B1A802F0E942B03682F10
:100AD0008DE894E00E945B1A8E2D0E942B03682FF4
:100AE0008DE894E00E945B1A8DE894E00F90DF910E
:100AF000CF910F91EF900C942A1B6F927F928F925F
:100B00009F92AF92BF92CF92DF92EF92FF920F939C
:100B10001F93CF93DF934C015B01EA01390168E633
:100B200070E08DE894E00E94AE1A60E070E08DE81D
:100B300094E00E94F9028DE894E00E942A1B42E1B1
:100B400050E068E670E08DE894E00E94271B8DE895
:100B500094E00E94071A8F770E943403F401808387
:100B60008DE894E00E94071A0E943403F501808307
:100B70008DE894E00E94071A8F730E9434038883E3
:100B80008DE894E00E94071A8DE894E00E94071A0D
:100B90000E943403F30180838DE894E00E94071AD9
:100BA0000E943403F80180838DE894E00E94071AC4
:100BB0000E943403F7018083CAE08DE894E00E942C
:100BC000071AC150D1F78DE894E00E94071AF60188
:100BD0008083DF91CF911F910F91FF90EF90DF9075
:100BE000CF90BF90AF909F908F907F906F9008951F
:100BF000CF92DF92EF92FF920F931F938823A1F081
:100C00008EE5C82E84E0D82E9FE5E92E94E0F92EDB
:100C100000E614E021E634E042E654E063E674E0E6
:100C200084E694E00E947D05809161040E943D036A
:100C30006DE271E086E595E00E94DE20809160041F
:100C40000E943D036DE271E086E595E00E94DE20A2
:100C500080915F040E943D0367E971E086E595E0BD
:100C60000E94DE20809162040E943D0367E471E0EF
:100C700086E595E00E94DE20809163040E943D039A
:100C800067E471E086E595E00E94DE2080916404CF
:100C90001F910F91FF90EF90DF90CF900C943D0348
:100CA000CF92DF92EF92FF920F931F93CF93DF9338
:100CB0008EE5C82E84E0D82E9FE5E92E94E0F92E2B
:100CC00000E614E021E634E042E654E063E674E036
:100CD00084E694E00E947D05109277046FE271E053
:100CE00086E595E00E94FD2069E471E086E595E0E7
:100CF0000E94FD20CAE0D6EF11E067E971E086E5C9
:100D000095E00E94DE2080917704823031F170F40A
:100D10008823D1F0813009F047C061E871E086E5B1
:100D200095E00E94DE20809160043CC0843091F107
:100D300040F18530C9F568EB71E086E595E00E94E9
:100D4000DE20809164042EC068E771E086E595E0BE
:100D50000E94DE2080915F0425C06BE871E086E58B
:100D600095E00E94DE206DE086E595E00E94401F40
:100D700069E971E086E595E00E94DE2080916104DA
:100D800011C062EA71E086E595E00E94DE20809164
:100D9000620408C06CEA71E086E595E00E94DE20FE
:100DA000809163040E943D030E94741D60936A0455
:100DB00070936B0480936C0490936D048AE694E0C6
:100DC0000E94000386E595E00E94DB1E8093690483
:100DD000853741F0853531F0843721F0843511F0C5
:100DE0008D3061F78F7D853521F0843509F0F0C0B5
:100DF00068C080917704823011F128F4882359F07B
:100E00008130A1F0E5C0843009F445C0C8F18530D7
:100E100009F44CC0DDC080915F048F5F843618F404
:100E200080935F04D5C010925F04D2C0909160049B
:100E30009F5F9D3008F071C090936004C9C080919D
:100E400061048F5F80936104E0916004E23081F47B
:100E500090E040915F04437021E030E011F020E029
:100E600030E0245E3F4F281739070CF0B1C081C035
:100E7000F0E0E253FC4F9081981708F47AC0A8C0C4
:100E8000809162048F5F883118F480936204A0C05F
:100E9000109262049DC0809163048F5F8C3318F4BC
:100EA0008093630495C01092630492C0809164049F
:100EB0008F5F8C3318F4809364048AC010926404AA
:100EC00087C080917704823059F128F4882361F03B
:100ED0008130C9F07DC0843009F45DC008F44CC095
:100EE000853009F467C074C020915F04265F243602
:100EF00038F0822F6C2F0E94F2248D9F200D112438
:100F000020935F0465C0809160048B3010F08A509C
:100F100004C0833008F05CC0865F8093600458C0D2
:100F200020916104265F20936104622F70E0E091BC
:100F30006004F0E0E253FC4F8081482F50E0309194
:100F40005F04337081E090E011F080E090E0840F66
:100F5000951F861797074CF4822F6C2F0E94F2245E
:100F60008D9F200D112420936104809161048111D3
:100F70002FC0109361042CC020916204265F283199
:100F800038F0822F6C2F0E94F2248D9F200D1124A7
:100F9000209362041DC020916304265F2C3338F037
:100FA000822F6C2F0E94F2248D9F200D11242093FC
:100FB00063040EC020916404265F2C3338F0822F26
:100FC0006C2F0E94F2248D9F200D11242093640425
:100FD0006DE086E595E00E94401F809169048D30A8
:100FE00009F08BCE809177048F5F809377048630F1
:100FF00008F483CEE0905F040091600420916104C6
:101000004091620460916304809164040E9426050B
:1010100064EC71E086E595E00E94FD2063ED71E0EF
:1010200086E595E00E94DE2081E00E94F8056BEBEA
:1010300072E086E595E0DF91CF911F910F91FF90CF
:10104000EF90DF90CF900C94FD20CF92DF92EF9243
:10105000FF920F931F93CF9383E00E94981E892BDA
:1010600009F0FFC283E10E94981E892B09F07AC122
:1010700082E10E94981E80937B0429B320937A0416
:10108000882339F020937700109279041092780425
:1010900060C1E09177008E2F90E08E30910508F0CE
:1010A0004FC1FC01E65DFF4F0C94202520FF02C0DC
:1010B00060E001C061E08DE041C1622F86E595E00E
:1010C0000E94401F3DC180917604882309F438C1F5
:1010D00060E270E08DE894E00E94AE1A62E170E098
:1010E0000DC080917604882309F42AC160E270E083
:1010F0008DE894E00E94AE1A63E170E08DE894E020
:101100000E94F90260917A048DE894E00E945B1AD3
:101110008DE894E00E942A1B13C1809176048823F5
:1011200009F40EC160E270E08DE894E00E94AE1A0E
:1011300060E070E0E3CF80917604882309F400C179
:1011400060E270E08DE894E00E94AE1A61E070E029
:10115000D5CF80917604882309F4F2C060E270E074
:101160008DE894E00E94AE1A6CE070E0C7CF8091E9
:101170007604882309F4E4C060E270E08DE894E02E
:101180000E94AE1A6DE070E0B9CF2436C8F48091A9
:101190000A04805D80936E00822F6AE00E94F22430
:1011A00090E3980F90937000205D3AE0839F2019A0
:1011B0001124209371008CE690E00E94781501C004
:1011C00080E180936000BCC0409178045091790424
:1011D000822F90E04115510529F490930E048093DD
:1011E0000D041DC0982F882720910D04822B909309
:1011F0000E0480930D0420910C048115924028F474
:10120000203218F41092600007C0203210F481E1FF
:1012100001C082E1809360008FEF809377004F5F81
:101220005F4F50937904409378048AC020930C0454
:1012300080910D0490910E048115924028F4203283
:1012400038F4109260007CC0203210F481E1B9CFF4
:1012500082E1B7CF8091780490917904892BD1F401
:1012600080910D0490910E04811522E0920790F474
:1012700020910C04203270F43091600031110AC0CA
:1012800065E0880F991F6A95E1F7822B0E941C0484
:101290008093600080916000811133C08091780458
:1012A0008F7180937704E82FF0E0EC5EFB4F909114
:1012B0007A0490838F3129F56BE074E084E194E047
:1012C0000E94FC038093600080910B04803218F42C
:1012D00083E18093600080917804909179048F3F3E
:1012E000914078F080916000811108C06BE074E05B
:1012F00080E090E00E94FC03809360008FEF809379
:101300007700809178049091790401969093790404
:101310008093780415C0213059F020F0223081F4F8
:1013200060E007C061E08CE00E94681E60E005C0DC
:1013300061E08CE00E94681E61E08BE00E94681E04
:10134000809177008A3029F08C3019F08FEF8093EC
:10135000770060E08EE00E94681E60E080E00E94FE
:10136000681E70C184E10E94981E892B91F782E16A
:101370000E94981E80937B0410927A048823D9F0EF
:101380008FEF80937A0486E595E00E94C11E1816BF
:1013900019064CF486E595E00E94DB1E80937A04E2
:1013A0001092660403C081E08093660461E081E0EE
:1013B0000E94681E34C1E09177008E2F90E0FC01FE
:1013C000E058F109E830F10508F021C1E85CFF4F71
:1013D0000C9420258DE00E94981E8093770462E093
:1013E0008DE00E942C1E8DE00E94981E21E0892B2A
:1013F00009F020E020937A0461E08DE00E942C1E29
:10140000609177048DE00E94681E01C1809176048E
:10141000882309F4FCC060E270E08DE894E00E944B
:10142000AE1A62E170E00DC080917604882309F461
:10143000EEC060E270E08DE894E00E94AE1A63E1D5
:1014400070E08DE894E00E94F9028DE894E00E943B
:101450002A1B60E270E08DE894E00E94AE1A41E041
:1014600050E060E270E08DE894E00E94271B8DE878
:1014700094E00E94071AC9C090916504990F2091C9
:101480001104C92FC22B86E595E00E94C11E1816D3
:10149000190614F090E001C094E09C2B8091660442
:1014A000811188E0892BB1C080916504882309F4FB
:1014B0004AC08091780490917904892BA1F44EE57B
:1014C000C42E44E0D42E5FE5E52E54E0F52E00E670
:1014D00014E021E634E042E654E063E674E084E69A
:1014E00094E00E947D058091780490917904873082
:1014F000910548F583309105C1F038F481309105AC
:1015000071F08230910571F007C08530910599F036
:1015100078F08630910591F02091640411C02091FB
:1015200063040EC0209162040BC02091610408C0C6
:101530002091600405C020915F0402C020915E04E8
:1015400020937A0458C08FEF8093770060C0809119
:1015500060005BC08091780490917904892BD1F46C
:1015600080910D0490910E04811522E0920790F471
:1015700020910C04203270F43091600031110AC0C7
:1015800035E0880F991F3A95E1F7822B0E941C04E1
:101590008093600080916000811122C08091780466
:1015A0008F718093770481110FC06FE074E084E144
:1015B00094E00E94E3038093600080910F048032E6
:1015C00018F483E18093600080916000811108C06D
:1015D000E0917704F0E0EC5EFB4F808180937A0429
:1015E00080917804909179048F3F31E0930718F04F
:1015F0002FEF2093770001969093790480937804DD
:1016000006C084E394E00E94621480937A0480917F
:1016100077008D7F843819F08FEF80937700CFEFBC
:10162000CABB80917A048BBB60E08EE00E94681E8A
:1016300060E080E00E94681E82E090E00E94E21D6F
:101640001ABACBBB61E080E00E94681E61E08EE0C8
:10165000CF911F910F91FF90EF90DF90CF900C945E
:10166000681ECF911F910F91FF90EF90DF90CF9068
:101670000895EF920F93CF93DF9300D000D000D066
:10168000CDB7DEB768E670E08DE894E00E94AE1A50
:101690008DE894E00E942A1B811163C160EF71E024
:1016A00086E595E00E94DE2081E00E94F8056BEB64
:1016B00072E086E595E00E94FD206FE072E086E52D
:1016C00095E00E94DE2060915E04062E000C770BF0
:1016D0004AE050E086E595E00E94B42164E372E0C0
:1016E00086E595E00E94FD2068E670E08DE894E0D4
:1016F0000E94AE1A6FE070E08DE894E00E94F9025B
:101700008DE894E00E942A1B41E050E068E670E01A
:101710008DE894E00E94271B8DE894E00E94071A50
:1017200087FF21C128E030E046E050E062E874E045
:10173000CE0101960E947A22CE0101960E94C0221B
:1017400060936404CE0101960E94CF2125E030E031
:1017500043E050E062E874E0CE0101960E947A22F4
:10176000CE0101960E94C02260936304CE010196CF
:101770000E94CF2122E030E040E050E062E874E0D7
:10178000CE0101960E947A22CE0101960E94C022CB
:1017900060936204CE0101960E94CF2126E030E0E2
:1017A00044E050E06CE774E0CE0101960E947A229A
:1017B000CE0101960E94C02260936104CE01019681
:1017C0000E94CF2160E070E08CE794E00E946922E3
:1017D000082E000C990BAA0BBB0BFC01E154F1097C
:1017E000E331F105E8F5E05CFF4F0C94202561E062
:1017F00070E08CE794E00E946922813661F062E03B
:1018000070E08CE794E00E9469228E3611F087E048
:1018100025C086E023C081E021C082E01FC062E0D5
:1018200070E08CE794E00E946922823711F088E032
:1018300015C084E013C062E070E08CE794E00E9481
:101840006922823711F085E009C083E007C089E092
:1018500005C08AE003C08BE001C08CE08093600487
:101860002BE030E049E050E06CE774E0CE010196F7
:101870000E947A22CE0101960E94C02260935F04EA
:10188000CE0101960E94CF2166E372E086E595E0E5
:101890000E94FD206EE472E086E595E00E94DE2065
:1018A00080E00E94F80569E772E086E595E00E9415
:1018B000DE200E94741D60936A0470936B04809311
:1018C0006C0490936D048AE694E00E94000386E520
:1018D00095E00E94DB1E80936904893731F08935D9
:1018E00021F08E3611F08E3471F7682F86E595E081
:1018F0000E940F21809169048F7D8935D9F4E09091
:101900005F04009160042091610440916204609141
:101910006304809164040E94260564E872E086E511
:1019200095E00E94DE2081E00E94F80586E595E0C2
:101930000E94E72068E670E08DE894E00E94AE1A0D
:101940006FE070E08DE894E00E94F90268E070E0DA
:101950008DE894E00E94F9028DE894E00E942A1B31
:1019600002C080E001C081E026960FB6F894DEBF89
:101970000FBECDBFDF91CF910F91EF900895CF9320
:10198000DF9361E086E10E942C1E60E086E10E9408
:10199000681E61E080E00E942C1E60E080E00E94F2
:1019A000681E62E08DE00E942C1E8DE00E94981E51
:1019B000EC0161E08DE00E942C1E61E08DE00E9450
:1019C000681E62E081E00E942C1E61E081E00E94BE
:1019D0002C1E61E081E00E94681E61E082E00E94AE
:1019E0002C1E61E082E00E94681E60E083E00E949D
:1019F0002C1E62E08EE00E942C1E61E08EE00E94B0
:101A00002C1E61E08EE00E94681E1ABA8FEF8BBB1D
:101A100062E085E10E942C1E62E084E10E942C1E9F
:101A200062E083E10E942C1E62E082E10E942C1E93
:101A300061E08CE00E942C1E61E08CE00E94681E38
:101A400061E08BE00E942C1E60E08BE00E94681E2B
:101A500061E08FE00E942C1E0E94CF0362E08AE0CA
:101A60000E942C1E61E087E10E942C1E60E087E14D
:101A70000E94681E64E670E080E090E00E94A61D6F
:101A800061E087E10E94681E64EF71E080E090E011
:101A90000E94A61D8DE090E00E94F702823028F09F
:101AA00061E08DE090E00E94DB028DE090E00E941A
:101AB000F702809367048EE090E00E94F702809323
:101AC0000A04843038F060E08EE090E00E94DB028F
:101AD00010920A048DE894E00E949A1A60E270E085
:101AE0008DE894E00E94AE1A8DE894E00E942A1BD3
:101AF000811103C081E08093760426E040E052EC3F
:101B000061E070E086E595E00E94871F61E372E086
:101B100086E595E00E94EB206CE072E086E595E0BA
:101B20000E94EB2065EF71E086E595E00E94BA2007
:101B300080916704882319F069EA72E002C06BEAB9
:101B400072E086E595E00E94DE206DEA72E086E5AF
:101B500095E00E94FD200E94390B809365048091DE
:101B60007604882331F06FED71E086E595E00E9400
:101B7000EB2068EC71E086E595E00E94BA208CE0ED
:101B800090E00E94F702823028F060E08CE090E064
:101B90000E94DB028CE090E00E94F7028093110427
:101BA000882319F061EB72E002C064EB72E086E515
:101BB00095E00E94FD2084E394E00E94DD0384E32D
:101BC00094E00E94DD038AE090E00E94F702809397
:101BD0007504CD2B19F0853008F461C186E595E0D8
:101BE0000E94C11E181619062CF486E595E00E9485
:101BF000DB1EF4CF86E595E00E94E7206CE971E0FA
:101C000086E595E00E94EB2086E595E00E94E720BE
:101C1000809175048530C8F46CE871E086E595E044
:101C20000E94BA206091750470E06F5F7F4F4AE0B8
:101C300050E086E595E00E94B4216BEB72E086E50A
:101C400095E00E94FD20D0E301C0D1E362E871E09D
:101C500086E595E00E94EB2068E771E086E595E077
:101C60000E94EB2066E671E086E595E00E94BA20CE
:101C700080910A040E94B40467E571E086E595E06E
:101C80000E94EB206DE471E086E595E00E94EB2078
:101C90006EE271E086E595E00E94BA2080916704CB
:101CA000882319F06BEA72E002C069EA72E086E507
:101CB00095E00E94DE2068EB72E086E595E00E94E8
:101CC000FD206DEB72E086E595E00E94DE208091BC
:101CD0001104811103C061EB72E002C064EB72E099
:101CE00086E595E00E94DE206BEB72E086E595E0EC
:101CF0000E94FD206AED72E086E595E00E94DE20FC
:101D000080910A040E94B40486E595E00E94E720D1
:101D100080916504882341F066EE72E086E595E0E7
:101D20000E94FD20C9E301C0C8E386E595E00E945A
:101D3000E7200E94741D60936A0470936B04809383
:101D40006C0490936D046FEF72E086E595E00E945D
:101D5000DE208AE694E00E94000386E595E00E947A
:101D6000DB1E809369048D17A4F3C81794F3682FC2
:101D700086E595E00E94E02063E173E086E595E06A
:101D80000E94FD20809169048733B1F01CF48633F2
:101D900049F075C08833E1F0893309F070C00E94C2
:101DA00050066DC061E080916704811160E060932E
:101DB00067048DE090E009C061E080911104811119
:101DC00060E0609311048CE090E00E94DB0257C059
:101DD00061EF70E086E595E00E94EB2080910A04B7
:101DE000809368048091680490E00196837099273D
:101DF0008093680468E173E086E595E00E94DE2048
:101E0000809168040E94B4046EED70E086E595E070
:101E10000E94BA2086E595E00E94C11E1816190698
:101E20002CF486E595E00E94DB1EF4CF86E595E074
:101E30000E94C11E181619062CF08AE694E00E9432
:101E40000003F4CF86E595E00E94DB1E80936904D1
:101E50008D3011F08B3131F686E595E00E94E72058
:101E600086E595E00E94E720809169048D3039F481
:101E70006091680460930A048EE090E0A6CF6091C0
:101E800069046153609375048AE090E0653018F44A
:101E90000E94DB0204C00E94F702809375048091C7
:101EA0007504823071F460ED70E086E595E00E9483
:101EB000BA2080910A040E94B40486E595E00E944D
:101EC000E72080917504823071F140F48823E9F0B5
:101ED000813009F05EC089E293E045C0833009F4A7
:101EE00049C0843009F055C0E0E7F2E08591949153
:101EF00090937404809373048AE692E09093720442
:101F00008093710480E19DEF40C08DE193E0909358
:101F10001304809312041092700410926F0481E0F5
:101F200080936E0436C080910A04813089F038F0C5
:101F30008230B9F0833069F585E593E01DC085E313
:101F400093E0909313048093120480EE91ED1DC0F2
:101F50008FE393E0909313048093120480E890E061
:101F600014C08AE493E0909313048093120480E0F9
:101F700091E00BC081E693E09093130480931204E8
:101F80001092700410926F0404C0909370048093B8
:101F90006F0461E080E00E94681E80916F04909160
:101FA0007004892B79F080E090E00E949E0383EC1E
:101FB0000E94620380916F040E946203809170040A
:101FC0000E94620380916F04909170040E949E03AE
:101FD00080917504843008F0C9C084E394E00E94C5
:101FE0006214811109C080911204909113040E941F
:101FF0007815809310043DC084E394E00E9462143D
:1020000080931004882379F340E050E0609110043D
:1020100080E00E942A040E940C0584E394E00E9460
:10202000DD03EACF40911204509113046091100433
:1020300081E00E942A040E940C0580911204909174
:1020400013040E94781580931004833081F084E398
:1020500094E00E94DD0384E394E00E94DD0380911C
:102060001204909113040E947815809310048091BB
:1020700010048111D7CF6EE673E086E595E00E94EB
:10208000DE20609112047091130486E595E00E94B1
:10209000DE206AE873E086E595E00E94DE2006C057
:1020A000609110048032F1F461111CC06FE074E0A3
:1020B00084E194E00E94E30380931004109268048A
:1020C000E091680480910F04E81750F7F0E0EC5EAF
:1020D000FB4F80810E946203809168048F5F809330
:1020E0006804EECF662369F0409112045091130406
:1020F00082E00E942A040E940C0580E090E00E9489
:102100001C04809110048111D1CF6FE873E086E543
:1021100095E00E94FD2060E086E10E94681E82B585
:10212000877F82BD85B5816085BD85B5897F85BD89
:1021300085B5886085BD85B58F7B85BD85B580619A
:1021400085BD85B58F7D85BD8091670483BD61E0C8
:102150008FE00E942C1E65E973E086E595E00E9401
:10216000FD2086E595E00E94E7201BC062EB73E04E
:1021700086E595E00E94DE20C0E0D0E08091710409
:1021800090917204C817D90708F0BFCFE09173048B
:10219000F0917404EC0FFD1F84910E94620321965C
:1021A000EDCF86E595E00E94C11E181619062CF4A5
:1021B00086E595E00E94DB1EF4CF61E070E080E0F0
:1021C00090E00E94A61D61E086E1DF91CF910C9422
:1021D000681E8FB9779BFECF08958FEF0E94E9109C
:1021E0008FB10895FF920F931F93CF93DF93C82F62
:1021F000D42F152F062FF72E80918A04811104C049
:1022000083E58DB91EB804C080E58DB981E08EB933
:10221000C7FF09C040E050E0BA0187E70E94F21012
:10222000823070F5CF7761E084E00E94681E0E94E2
:10223000ED1060E084E00E94681E0E94ED108C2F7B
:102240000E94E9108F2D0E94E910802F0E94E91052
:10225000812F0E94E9108D2F0E94E910C03421F0D7
:10226000C83421F487E803C085E901C081E00E94F9
:10227000E910CAE00E94ED1087FF02C0C150D1F7FB
:10228000DF91CF911F910F91FF900895EF92FF92F0
:102290000F931F93CF93DF931F92CDB7DEB70091BB
:1022A0008804109189040E3F8FEF180731F080E009
:1022B0000E94E91001501109F6CF0E94ED108F71B4
:1022C000853019F011E090E019C008E813E180E9C9
:1022D000E82EFF24F3940E94ED108F3F49F0011582
:1022E000110531F0C7010197F1F701501109F3CF42
:1022F00081E090E0012B09F080E0182F61E084E09C
:1023000099830E94681E0E94ED109981812F0F9081
:10231000DF91CF911F910F91FF90EF900895AF92B1
:10232000BF92CF92DF92EF92FF920F931F93CF93C2
:10233000DF9300D000D0CDB7DEB780918A04882328
:1023400031F084E00E94981E892B09F498C061E066
:1023500084E00E94681E61E084E00E942C1E61E01F
:1023600085E00E942C1E61E087E00E942C1E61E047
:1023700084E00E942C1E83E58DB91EB861E084E0E4
:102380000E94681E1AE00E94ED101150E1F740E033
:1023900050E0BA0180E40E94F2108130C1F54AEAAF
:1023A00051E060E070E088E40E94F210813089F52D
:1023B0008E010F5F1F4F780144E0D42ED00E0E9493
:1023C000ED10F70181937F01DE12F9CF8B8181300F
:1023D000F1F48C818A3AD9F420E1E22E27E2F22E40
:1023E00030E9A32EBB24B39440E050E060E070E4F9
:1023F00089EE0E94F210811147C0EF2841F040E0C1
:1024000050E0BA018AE70E94F210882301F110E03F
:1024100029C040E050E0BA0189EE0E94F2108230FB
:1024200018F011E001E402C012E009EE80E1E82EAC
:1024300087E2F82E90E9C92EDD24D39440E050E0E5
:10244000BA01802F0E94F210811134C026C00E9470
:10245000ED10F80181938F01DE12F9CF898186FD9D
:1024600011C014E010938A0461E084E00E94681EA9
:102470000E94ED1081E0112331F180E024C00E9420
:10248000461165CF1CE0EECFC5010197F1F7F1E0F1
:10249000EF1AF10809F4BBCFA7CFEF2809F4B7CFA3
:1024A00040E052E060E070E080E50E94F2108111AF
:1024B000AECFD8CFC6010197F1F781E0E81AF10855
:1024C00009F4A5CFBBCF0F900F900F900F90DF9125
:1024D000CF911F910F91FF90EF90DF90CF90BF9021
:1024E000AF900895CF92DF92EF92FF920F931F93D8
:1024F000CF93DF937C01690180918A0483FD07C03B
:1025000089E0440F551F661F771F8A95D1F781E533
:102510000E94F210882319F0C1E0D0E031C0C0E47D
:10252000DCE90E94ED108F3F19F42197D1F7F4CF29
:102530008E3F91F7C2E0D2E0C01BD10BCC19DD0970
:10254000C114D10431F00E94ED1081E0C81AD10805
:10255000F7CFE114F10449F00E94ED10F7018193E7
:102560007F0101501109C1F705C00E94ED10015013
:102570001109D9F70E94ED102197E1F7C0E0D0E0F2
:1025800061E084E00E94681E0E94ED10CE01DF91A0
:10259000CF911F910F91FF90EF90DF90CF90089512
:1025A000EF92FF920F931F93CF93DF930097C9F0A1
:1025B0007A01EC01E114F104A9F100918804109171
:1025C00089040115110571F189910E94E9100150EA
:1025D0001109109389040093880481E0E81AF10836
:1025E000E9CF4115510561057105F9F080918A0423
:1025F00083FD07C089E0440F551F661F771F8A952A
:10260000D1F788E50E94F210811117C08FEF0E9468
:10261000E9108EEF0E94E91080E092E09093890427
:102620008093880480E090E00AC0DF91CF911F91F1
:102630000F91FF90EF900C94461181E090E0DF91B4
:10264000CF911F910F91FF90EF9008950F931F93DB
:10265000E0918B04F0918C049B01AC012250310974
:102660004109510986819781A085B1850297A10909
:10267000B109281739074A075B0768F4A281B0E05F
:102680000E9426250289138924893589600F711FCC
:10269000821F931F03C060E070E0CB011F910F9178
:1026A00008950F931F93CF93DF93DC01E0918B0488
:1026B000F0918C0411961C921E9214966D917D914E
:1026C0008D919C911797613071058105910569F194
:1026D000068117812085318560177107820793076E
:1026E00020F5611571058105910539F420812330AC
:1026F00021F46685778580899189ED0168877987DE
:102700008A879B87611571058105910519F00E94E3
:10271000261304C066857785808991896C877D87BB
:102720008E879F8780E090E002C081E090E0DF919B
:10273000CF911F910F910895CF92DF92EF92FF9268
:102740000F931F93CF93DF9300D000D0CDB7DEB7A8
:10275000E0918B04F0918C04623071058105910544
:1027600008F459C0C680D780E084F1846C157D05DB
:102770008E059F0508F04FC02081223019F02330CC
:1027800001F149C09B013327220F331FBB27A92F1B
:10279000982F872FC284D384E484F584AC01BD01D3
:1027A0004C0D5D1D6E1D7F1D02E010E0CE010196F7
:1027B0000E947212892B79F569817A8180E090E01C
:1027C0002EC09B012F773327220F331F220F331F79
:1027D000DC01CB0157E0B695A795979587955A955B
:1027E000D1F7C284D384E484F584AC01BD014C0DDF
:1027F0005D1D6E1D7F1D04E010E0CE0101960E945C
:102800007212892B41F489819A81AB81BC81BC0110
:10281000CD019F7004C061E070E080E090E00F9017
:102820000F900F900F90DF91CF911F910F91FF901C
:10283000EF90DF90CF900895CF92DF92EF92FF92CA
:102840000F931F93CF93DF93EC016A017B0102E0AA
:1028500010E02EEF31E00E947212892BA9F48881DA
:10286000998185359A4A91F426E330E0B701A601B3
:10287000CE010E947212892B59F488819981863485
:10288000914431F480E015C083E013C082E011C0B0
:1028900002E010E022E530E0B701A601CE010E947F
:1028A0007212892B29F4888199818634914451F3DD
:1028B00081E0DF91CF911F910F91FF90EF90DF901A
:1028C000CF9008952F923F924F925F926F927F9296
:1028D0008F929F92AF92BF92CF92DF92EF92FF9230
:1028E0000F931F93CF93DF93CDB7DEB7A4970FB6A7
:1028F000F894DEBF0FBECDBF1C0110928C04109265
:102900008B040E948F1180FDA0C040E050E0BA010E
:10291000CE0101960E941C14813009F500E110E0FF
:102920002EEB31E040E050E0BA01CE0101960E946A
:102930007212892B19F081E090E0C1C08D81811164
:1029400003C086E090E0BBC049845A846B847C84D9
:10295000B301A201CE0101960E941C1403C0412CB8
:10296000512C3201833039F38111EBCF04E210E0B6
:102970002DE030E0B301A201CE0101960E94721257
:10298000892BC9F62A853B8540E050E021153105A9
:102990004105510521F4288D398D4A8D5B8DAC811F
:1029A000B0E00E9426254B015C010A811B8120E0DA
:1029B00030E0400E511E621E731EF10142865386A6
:1029C0006486758649814283CD80DE80D582C4824B
:1029D0008F819885A0E0B0E00097A105B10521F4B2
:1029E0008C899D89AE89BF8954E0D694C7945A9545
:1029F000E1F7E12CF12C801B910BA20BB30B881992
:102A00009909AA09BB09BC01CD016C197D098E0980
:102A10009F09242F30E040E050E00E94FE24DA01BC
:102A2000C9010296A11DB11DF10186839783A0877C
:102A3000B187BA01A901465F5F40610971094F3F43
:102A40005F4E61057105A0F103C082E090E037C0E0
:102A5000873F9F4FA105B10508F473CF83E0F101D3
:102A60008083833029F488A199A1AAA1BBA107C0C2
:102A7000D501C401840D951DA61DB71DF1018687E2
:102A80009787A08BB18BC40CD51CE61CF71CC80C17
:102A9000D91CEA1CFB1CF101C28AD38AE48AF58A9C
:102AA000118230928C0420928B0480E090E007C069
:102AB000873F9F4FA105B10588F682E0D0CFA4964D
:102AC0000FB6F894DEBF0FBECDBFDF91CF911F913F
:102AD0000F91FF90EF90DF90CF90BF90AF909F90BD
:102AE0008F907F906F905F904F903F902F900895C0
:102AF0004F925F926F927F929F92AF92BF92CF92CE
:102B0000DF92EF92FF920F931F93CF93DF93CDB796
:102B1000DEB7EC970FB6F894DEBF0FBECDBFC09006
:102B20008B04D0908C04C114D10409F4DCC0D6010C
:102B300011961C929E012F5C3F4F3CA32BA39C013E
:102B40007901F90180812F5F3F4F8032C9F38F32C5
:102B500009F479011DA21EA21FA218A6D7018C910B
:102B6000803238F0A0E29A2E5E01BCE0AB0EB11CC0
:102B70006AC0CE0181960E9451131982009709F410
:102B80007DC02CC180E090E028E031E0390FD70112
:102B9000A90FB11D9C91913208F060C0E30EF11CA9
:102BA00081E0913208F080E08387CE0181960E9417
:102BB0005113009709F012C129A13AA12F703327B0
:102BC000F5E0220F331FFA95E1F74DA55EA56FA53D
:102BD00078A900E210E0CE0101960E947212892BC2
:102BE00009F0ECC08981882309F4EBC08C8583FD52
:102BF00086C06BA17CA1FE0131969B01EA15FB0505
:102C000009F076C0FB019385911138C084FFD9C0CB
:102C1000E0918B04F0918C048081833009F0DAC05C
:102C20008D899E89A0E0B0E0DC01992788274B8D33
:102C30005C8D60E070E0842B952BA62BB72B8DA3C9
:102C40009EA3AFA3B8A7EBA1FCA1DF01CF010B9618
:102C5000A817B90709F496CF9D92FACF9F3209F4CD
:102C60009DCF9E3209F4B0C0821708F097CFDF01E4
:102C7000A80FB11D9C938F5F932F87CF89818823E5
:102C8000A1F18C8584FD31C0E0918B04F0918C041E
:102C90008081833041F48D899E89A0E0B0E0DC0121
:102CA0009927882703C080E090E0DC014B8D5C8D84
:102CB00060E070E0842B952BA62BB72BF601868F56
:102CC000978FA0A3B1A38D8D9E8DAF8DB8A1828F5C
:102CD000938FA48FB58F168A178A108E118E81E07C
:102CE000818380E003C085E001C083E090E076C08E
:102CF0004191D9019D919D01491709F47FCF6090C1
:102D00008B0470908C0409A11AA10F5F1F4F09F466
:102D100058C08DA59EA5AFA5B8A90097A105B1057E
:102D200009F44FC098012F703327232B09F043C0BB
:102D30000196A11DB11D8DA79EA7AFA7B8AB69A530
:102D40007AA58BA59CA5611571058105910539F4BE
:102D5000F301848195810817190798F52CC0D301D8
:102D600012962C9130E0A901415051099801E4E0FC
:102D700036952795EA95E1F724233523232BD9F4BB
:102D80000E949C136230710581059105B8F0F30132
:102D900046805780608471846415750586059705A3
:102DA00080F469A77AA78BA79CA70E9426136DA71A
:102DB0007EA78FA798AB1AA309A3FECE81E090E06F
:102DC0000DC083E090E00AC0283009F0E7CE88E02B
:102DD0002BE052CF80E090E0DC0129CFEC960FB6DB
:102DE000F894DEBF0FBECDBFDF91CF911F910F9141
:102DF000FF90EF90DF90CF90BF90AF909F907F902B
:102E00006F905F904F9008954F925F926F927F9274
:102E10008F929F92AF92BF92CF92DF92EF92FF92EA
:102E20000F931F93CF93DF934C016B015A01C09115
:102E30008B04D0918C04FA0111821082209709F43E
:102E4000A1C0898180FFA1C08A8D9B8DAC8DBD8D75
:102E50004E895F89688D798D841B950BA60BB70B06
:102E6000A60160E070E084179507A607B70708F48D
:102E70006C013401412C32E0532EC114D10409F409
:102E80007EC08E899F89A88DB98DAC01BD0151701E
:102E900066277727452B462B472BD1F5FA80FA94E6
:102EA000AC01BD0129E076956795579547952A9520
:102EB000D1F7F422C1F4892B8A2B8B2B29F46E8D48
:102EC0007F8D88A199A106C06AA17BA18CA19DA13B
:102ED0000E949C136230710581059105A0F16AA3DF
:102EE0007BA38CA39DA36AA17BA18CA19DA10E9421
:102EF0002613611571058105910529F1DC01CB01CE
:102F00008F0D911DA11DB11D8EA39FA3A8A7B9A7C9
:102F10002E893F893170C201821B930B76018C157B
:102F20009D0508F47C014EA15FA168A579A58114D7
:102F3000910411F0C30102C080E090E087010E947B
:102F40007212892B21F0198281E090E020C08E89D5
:102F50009F89A88DB98D8E0D9F1DA11DB11D8E8BD2
:102F60009F8BA88FB98F6E0C7F1CCE18DF08F501E0
:102F700080819181E80EF91EF182E0827ECF80E0AF
:102F800090E005C085E090E002C084E090E0DF9131
:102F9000CF911F910F91FF90EF90DF90CF90BF9056
:102FA000AF909F908F907F906F905F904F9008951B
:102FB0004F925F926F927F928F929F92AF92BF9249
:102FC000CF92DF92EF92FF920F931F93CF93DF93F5
:102FD0006C018B015A01C0918B04D0918C04FA01D1
:102FE00011821082209709F4C8C0898180FFC8C06F
:102FF0008074672B71F4882309F4C9C040E050E065
:10300000BA0180E090E00E94D012892B09F0BBC089
:10301000BEC081110AC08E899F89A88DB98D88276D
:103020009E7F8E8B9F8BA88FB98F8A8D9B8DAC8D49
:10303000BD8D4E895F89688D798D841B950BA60B9C
:10304000B70BA80160E070E084179507A607B707E3
:1030500008F48C01812C32E0932E0115110509F43E
:1030600099C08E899F89A88DB98D9C013170232BC1
:1030700009F046C0FA80FA94AC01BD0129E07695CA
:103080006795579547952A95D1F7F422C9F4892B6E
:103090008A2B8B2B29F46E8D7F8D88A199A106C078
:1030A0006AA17BA18CA19DA10E949C136230710535
:1030B0008105910508F467C06AA37BA38CA39DA337
:1030C0006AA17BA18CA19DA10E94261361157105A7
:1030D0008105910509F457C0AB01BC014F0D511D8D
:1030E000611D711D4EA35FA368A779A780E090E0E2
:1030F0000E94D012892B09F046C08981806489839F
:103100008E899F8991709401281B390B78012017B3
:10311000310708F479012701612C712CB301A20158
:10312000C6010E94D012892B71F54E895F89688D86
:10313000798D440D551D661D771D4E8B5F8B688FF5
:10314000798FCE0CDF1C0E191F09F501808191814A
:10315000E80EF91EF182E0825170452B09F07DCF17
:1031600040E050E0BA0180E090E00E94D012892B4C
:1031700051F489818F7B898370CF85E090E00CC00A
:1031800084E090E009C0198281E090E005C0898167
:103190008F7B898380E090E0DF91CF911F910F9129
:1031A000FF90EF90DF90CF90BF90AF909F908F9067
:1031B0007F906F905F904F9008954F925F926F92C3
:1031C0007F928F929F92AF92BF92CF92DF92EF92B7
:1031D000FF920F931F93CF93DF9300D000D0CDB712
:1031E000DEB7362F272F00918B0410918C04011528
:1031F000110509F4E7C0D80111964C91119740FFD1
:10320000E4C05A964D915D916D917C915D97C32E6E
:10321000D22E7C014C155D056E057F0510F46A0108
:103220007B01F80146885788608C718C168A178A52
:10323000108E118EC114D104E104F10409F4C8C048
:103240008280912CA12CB12C39E0880C991CAA1CED
:10325000BB1C3A95D1F7411451046104710409F47F
:103260003FC0B1E04B1A510861087108C701B601AF
:103270006150710981099109A50194010E94FE2400
:1032800029833A834B835C83C301B201A501940176
:103290000E94FE2489819A81AB81BC8182179307A9
:1032A000A407B507E8F088279927DC018819990950
:1032B000AA09BB09482259226A227B22D8015696C4
:1032C0004D925D926D927C925997C418D508E6088C
:1032D000F70892966D917D918D919C91959730C054
:1032E000F801668D778D80A191A162A373A384A359
:1032F00095A326C00E949C1362307105810591053B
:1033000028F1F80146805780608471846415750542
:1033100086059705D8F4F80162A373A384A395A347
:1033200046885788608C718C480C591C6A1C7B1C21
:10333000468A578A608E718EC818D908EA08FB0839
:103340008C149D04AE04BF04A8F204C0D8011196E9
:103350001C9216C0F80186889788A08CB18CC80C86
:10336000D91CEA1CFB1CC68AD78AE08EF18E0E940B
:103370002613611571058105910529F4F801118263
:1033800081E090E027C029E0F694E794D794C794B1
:103390002A95D1F7D80112962C9130E021503109AD
:1033A0004901330FAA08BB08C820D920EA20FB2016
:1033B000C60ED71EE81EF91EF801C6A2D7A2E0A6C7
:1033C000F1A606C085E090E005C084E090E002C070
:1033D00080E090E00F900F900F900F90DF91CF91D1
:1033E0001F910F91FF90EF90DF90CF90BF90AF9023
:1033F0009F908F907F906F905F904F9008958091F5
:10340000BD0490E02091BE04821B91090895909123
:10341000BE048091BD04981750F4E92FF0E0E15408
:10342000FB4F208130E09F5F9093BE0402C02FEFDE
:103430003FEFC9010895E091BE048091BD04E817F3
:1034400030F4F0E0E154FB4F808190E008958FEF7D
:103450009FEF08950895CF92DF92EF92FF920F931E
:103460001F93CF93DF937C01262F972F8A018091A2
:103470009904882391F0C62FD72F6E01C40ED51E54
:10348000CC15DD0571F06991D701ED91FC910190AA
:10349000F081E02DC7010995F3CF642F822F0E94A0
:1034A000DF1BC801DF91CF911F910F91FF90EF902B
:1034B000DF90CF900895CF93DF931F92CDB7DEB703
:1034C0006983209199042223D1F020919A0420321B
:1034D00040F021E030E0FC013383228380E090E083
:1034E00015C080919B04E82FF0E0E456FB4F9981D2
:1034F00090838F5F80939B0480939A0405C061E062
:10350000CE0101960E94DF1B81E090E00F90DF91D9
:10351000CF910895FC011382128288EE93E0A0E01F
:10352000B0E084839583A683B7838FED93E0918386
:10353000808308951092BE041092BD0410929B04E3
:1035400010929A040C94311B81E08093990460934B
:10355000BC0410929B0410929A0408950C94A41A2F
:103560000F93062F21E040919A046CE974E080915A
:10357000BC040E948C1B10929B0410929A0410921F
:1035800099040F9108954F925F926F927F92AF923C
:10359000BF92CF92EF92FF920F931F93CF93DF933F
:1035A0005C01F62ED42F28013901EE2021F10E9472
:1035B000A41ACE2DC43008F0C3E0C150C0F0D5012C
:1035C000ED91FC91B8E0CB9FC0011124A3019201C1
:1035D00004C056954795379527958A95D2F7CA0125
:1035E000B9010190F081E02DC5010995E6CF60E0B9
:1035F000C5010E94B01A4D2FD13208F040E22C2DA7
:103600006FEB74E08F2D0E94471B1092BE048093D5
:10361000BD04DF91CF911F910F91FF90EF90CF905C
:10362000BF90AF907F906F905F904F900895CF9232
:10363000EF920F931F93C22EE12C00E010E098014F
:103640000E94C31A1F910F91EF90CF90089521E02F
:103650000C94171B61E00C94B01A8DE894E00C9464
:103660008A1A10924C0581E080934A051092490510
:1036700061E081E10E94681E61E080E10E94681EB5
:103680000898099888E480B985E486BF0895413296
:1036900008F040C090914C059111FCCF91E09093BF
:1036A0004C0520934A052FEF2093DF041092240548
:1036B000240F2093230590934B0590914B05880F81
:1036C000892B80934B0580914905813051F41092EC
:1036D000490580914B0583B906B603FCFACF85EC0A
:1036E00001C085EE86BF80914C058130E1F3809169
:1036F0002405841710F44091240525E235E0FB01F0
:10370000D9018A2F821B841718F48D918193F9CFE8
:10371000842F089580E008950F93413208F047C048
:1037200090914C059111FCCF32E030934C05009301
:103730004A053FEF3093DF041092240540932305A0
:10374000FB0165E275E0DB013A2F361B341718F4F4
:1037500031913D93F9CF10924B0530914B05880F75
:10376000832B80934B0580914905813051F4109251
:10377000490580914B0583B906B603FCFACF85EC69
:1037800001C085EE86BF222321F080914C05823056
:10379000D1F38091DF048F3F79F08091DF04803294
:1037A00041F08091DF04803331F094E005C091E076
:1037B00003C092E001C093E0892F0F910895613218
:1037C00098F420914C05243089F460930105FC01A4
:1037D00023E035E0D9018A2F821B861718F48191E6
:1037E0008D93F9CF80E0089581E0089582E00895F7
:1037F00085ED86BF06B604FCFDCF10924C050895FA
:1038000085EC86BF10924C0508951F920F920FB65B
:103810000F9211242F933F934F935F936F937F9356
:103820008F939F93AF93BF93EF93FF9381B1887F63
:10383000803609F49BC078F5883209F45DC090F4B5
:10384000803109F456C038F4882309F4EEC088307A
:1038500009F44FC0EEC0883109F44EC0803209F43B
:103860005EC0E7C0803409F468C058F4803309F4BE
:1038700056C0883309F0DDC08093DF040E94001C2D
:10388000D8C0803509F44EC0883509F45BC088344F
:1038900009F0CFC0CCC0883909F4BFC0A8F488377C
:1038A00009F464C038F4883609F460C0803709F43C
:1038B0005DC0BFC0883809F4B0C0803909F45CC06D
:1038C000803809F0B6C058C0803B09F47FC038F496
:1038D000803A09F462C0883A09F478C0AAC0803CF2
:1038E00009F49EC0883C09F49BC0883B09F483C05E
:1038F000A0C080914B0510C09091240580912305B4
:10390000981758F5E091240581E08E0F80932405E7
:10391000F0E0EB5DFA4F808183B985EC7FC0809346
:10392000DF0485C0E091240581E08E0F809324059B
:1039300083B1F0E0EB5DFA4F808390912405809194
:10394000230568C0E091240581E08E0F8093240553
:1039500083B1F0E0EB5DFA4F808380914A058111DD
:1039600066C081E08093490584EA5BC083E0809370
:103970004C051092E004D1CF8091E004803208F031
:103980004CC0E091E00481E08E0F8093E00483B1AD
:10399000F0E0EF51FB4F8083C0CF0E94001C80916C
:1039A000E004803230F4E091E004F0E0EF51FB4FAE
:1039B00010826091E00470E0E0914505F0914605C9
:1039C00081EE94E009951092E00433C084E0809386
:1039D0004C051092020510920105E0914705F09107
:1039E0004805099580910105811105C081E080930A
:1039F000010510920305E091020581E08E0F80938E
:103A00000205F0E0ED5FFA4F808183B990910205E5
:103A100080910105981708F480CF85E886BF09C01A
:103A200085EC86BF10924C0504C01092DF040E9402
:103A3000F81BFF91EF91BF91AF919F918F917F9173
:103A40006F915F914F913F912F910F900FBE0F900B
:103A50001F9018951F920F920FB60F9211242F935B
:103A60003F938F939F93AF93BF9380914E05909117
:103A70004F05A0915005B091510530914D0523E0BF
:103A8000230F2D3720F40196A11DB11D05C026E896
:103A9000230F0296A11DB11D20934D0580934E0565
:103AA00090934F05A0935005B09351058091520516
:103AB00090915305A0915405B09155050196A11D13
:103AC000B11D8093520590935305A0935405B09374
:103AD0005505BF91AF919F918F913F912F910F907D
:103AE0000FBE0F901F9018952FB7F89460914E0558
:103AF00070914F0580915005909151052FBF089509
:103B00003FB7F8948091520590915305A0915405C8
:103B1000B091550522B708B600FE05C02F3F19F039
:103B20000196A11DB11D3FBFBA2FA92F982F88273D
:103B3000820F911DA11DB11DBC01CD0142E0660F98
:103B4000771F881F991F4A95D1F708958F929F92EA
:103B5000AF92BF92CF92DF92EF92FF926B017C0106
:103B60000E94801D4B015C01C114D104E104F104E9
:103B700001F10E94DB220E94801DDC01CB0188192B
:103B80009909AA09BB09883E9340A105B10560F3D4
:103B900021E0C21AD108E108F10888EE880E83E01E
:103BA000981EA11CB11CC114D104E104F10419F741
:103BB000DBCFFF90EF90DF90CF90BF90AF909F90C2
:103BC0008F900895019739F0880F991F880F991FDA
:103BD00002970197F1F70895789483B7826083BFC5
:103BE00083B7816083BF83B7806483BF83B78860F6
:103BF00083BF89B7816089BF1EBC8EB582608EBDD0
:103C00008EB581608EBD8FB581608FBD85B58460B6
:103C100085BD85B5806485BD329A319A309A379AD0
:103C20001AB80895833049F018F4813089F0089566
:103C3000843031F0863041F008958FB58F7702C01F
:103C40008FB58F7D8FBD089585B58F7D85BD089516
:103C500083B78F7D83BF0895CF93DF9390E0FC01FE
:103C6000E450FB4F2491FC01E45EFA4F84918823D9
:103C700061F190E0880F991FFC01E05BFA4FC5915C
:103C8000D491FC01EA5BFA4FA591B491611109C08E
:103C90009FB7F8948881209582238883EC912E2306
:103CA0000BC0623061F49FB7F8943881822F809501
:103CB00083238883EC912E2B2C939FBF06C08FB754
:103CC000F894E8812E2B28838FBFDF91CF91089540
:103CD0001F93CF93DF93282F30E0F901E452FB4F7D
:103CE0008491F901E450FB4FD491F901E45EFA4F5D
:103CF000C491CC23C9F0162F81110E94121EEC2F03
:103D0000F0E0EE0FFF1FEA5BFA4FA591B4918FB779
:103D1000F894111105C09C91ED2FE095E92302C0A4
:103D2000EC91ED2BEC938FBFDF91CF911F91089514
:103D3000CF93DF93282F30E0F901E452FB4F8491B9
:103D4000F901E450FB4FD491F901E45EFA4FC491BC
:103D5000CC2391F081110E94121EEC2FF0E0EE0FA7
:103D6000FF1FE45CFA4FA591B491EC91ED2381E043
:103D700090E021F480E002C080E090E0DF91CF91FC
:103D80000895FC01918D228D892F90E080589F4FDE
:103D9000821B91098F7799270895FC01918D828D5F
:103DA000981731F0828DE80FF11D858D90E0089510
:103DB0008FEF9FEF0895FC01918D828D981761F030
:103DC000828DDF01A80FB11D5D968C91928D9F5F52
:103DD0009F77928F90E008958FEF9FEF089585E48D
:103DE00090E2892B49F08DEF94E0892B29F00E9415
:103DF000452081110C94FD040895FC01848DDF01A0
:103E0000A80FB11DA356BF4F2C91848D90E0019651
:103E10008F739927848FA689B7892C93A089B1893C
:103E20008C9180648C93938D848D981306C0028846
:103E3000F389E02D80818F7D80830895CF93DF9378
:103E4000EC01888D8823C9F0EA89FB89808185FD92
:103E500005C0A889B9898C9186FD0FC00FB607FCF3
:103E6000F5CF808185FFF2CFA889B9898C9185FF34
:103E7000EDCFCE010E94FD1EE7CFDF91CF910895D7
:103E8000EF92FF920F931F93CF93DF93EC0181E0AA
:103E9000888F9B8D8C8D981305C0E889F989808166
:103EA00085FD24C0F62E0B8D10E00F5F1F4F0F73A2
:103EB0001127E02E8C8DE8120CC00FB607FCFACF4C
:103EC000E889F989808185FFF5CFCE010E94FD1E2A
:103ED000F1CF8B8DFE01E80FF11DE356FF4FF0820D
:103EE0000B8FEA89FB898081806207C0EE89FF8998
:103EF0006083E889F98980818064808381E090E033
:103F0000DF91CF911F910F91FF90EF900895CF9285
:103F1000DF92EF92FF921F93CF93DF93EC016A0140
:103F20007B01122FE889F98982E080834115514E87
:103F300061057105B1F060E079E08DE390E0A701E3
:103F400096010E94FE24DA01C9010197A109B10975
:103F5000B695A79597958795AC01411580E15807CF
:103F6000A8F0E889F989108260E874E88EE190E0B1
:103F7000A70196010E94FE24BA01A90141505109EE
:103F8000610971097695679557954795EC85FD858B
:103F90005083EE85FF854083188E1068EC89FD897B
:103FA0001083EA89FB89808180618083EA89FB89AB
:103FB000808188608083EA89FB8980818068808332
:103FC000EA89FB8980818F7D8083DF91CF911F916A
:103FD000FF90EF90DF90CF9008951F920F920FB651
:103FE0000F9211242F938F939F93EF93FF93E09160
:103FF0006605F09167058081E0916C05F0916D0593
:1040000082FD12C0908180916F058F5F8F77209124
:104010007005821751F0E0916F05F0E0EA5AFA4F0F
:10402000958F80936F0501C08081FF91EF919F91E3
:104030008F912F910F900FBE0F901F9018951F9288
:104040000F920FB60F9211242F933F934F935F93CC
:104050006F937F938F939F93AF93BF93EF93FF9350
:1040600086E595E00E94FD1EFF91EF91BF91AF9113
:104070009F918F917F916F915F914F913F912F9180
:104080000F900FBE0F901F90189586E595E00E9447
:10409000C11E21E0892B09F420E0822F0895E6E576
:1040A000F5E01382128288EE93E0A0E0B0E0848312
:1040B0009583A683B7838FEE93E09183808380E41A
:1040C00090E09587848729E230E0378726872BE2C6
:1040D00030E0318B208B2AE230E0338B228B958BC2
:1040E000848B8CE290E0978B868B118E128E138ED0
:1040F000148E0895CF92DF92EF92FF920F931F9349
:10410000CF93DF936C017A018B01C0E0D0E0CE1534
:10411000DF0589F0D8016D918D01D601ED91FC91FB
:104120000190F081E02DC6010995892B11F47E01E3
:1041300002C02196ECCFC701DF91CF911F910F9163
:10414000FF90EF90DF90CF9008956115710579F0A1
:10415000FB0101900020E9F73197AF01461B570B97
:10416000DC01ED91FC910280F381E02D099480E067
:1041700090E00895EF92FF920F931F93CF93DF93F8
:104180008C017B01C0E0D0E0F701EC0FFD1F6491D2
:10419000662361F0D801ED91FC910190F081E02D52
:1041A000C8010995892B11F02196EECFCE01DF9140
:1041B000CF911F910F91FF90EF9008950C94A5203F
:1041C000DC01ED91FC910190F081E02D09946BEF01
:1041D00073E00C94A5200F931F93CF93DF93EC0112
:1041E0000E94BA208C01CE010E94E720800F911F0F
:1041F000DF91CF911F910F9108950F931F93CF934C
:10420000DF93EC010E94A5208C01CE010E94E720E3
:10421000800F911FDF91CF911F910F9108950F9300
:104220001F93CF93DF93EC010E94E0208C01CE011D
:104230000E94E720800F911FDF91CF911F910F9176
:1042400008954F925F926F927F92EF92FF920F9339
:104250001F93CF93DF93CDB7DEB7A1970FB6F89436
:10426000DEBF0FBECDBF7C01FA01CB0119A2223007
:1042700008F42AE08E010F5D1F4F422E512C612C55
:10428000712CBF01A30192010E94FE24F901CA0111
:10429000015011096A3014F4605D01C0695CD801F5
:1042A0006C93232B242B252B61F7B801C7010E94A7
:1042B000A520A1960FB6F894DEBF0FBECDBFDF914B
:1042C000CF911F910F91FF90EF907F906F905F9033
:1042D0004F900895CF92DF92EF92FF920F931F932A
:1042E000CF93DF93EC016A017B012115310579F44D
:1042F000E881F9810190F081E02D642FDF91CF9169
:104300001F910F91FF90EF90DF90CF9009942A308A
:104310003105E9F477FF1AC06DE20E94E0208C01BC
:1043200044275527BA014C195D096E097F092AE017
:10433000CE010E942121800F911FDF91CF911F910B
:104340000F91FF90EF90DF90CF9008952AE0B70192
:10435000A601CE01DF91CF911F910F91FF90EF90B9
:10436000DF90CF900C9421219A01AB01770F660B5F
:10437000770B0C946A212115310541F4DC01ED9194
:10438000FC910190F081E02D642F09940C9421217F
:104390009A01462F50E060E070E00C94BB21FC01D4
:1043A000808191810C947123CF93DF93EC018881FC
:1043B0009981009711F00E947123198218821D8241
:1043C0001C821B821A82DF91CF9108950F931F9355
:1043D000CF93DF93EC018B016F5F7F4F88819981D1
:1043E0000E940924009731F0998388831B830A83F4
:1043F00081E001C080E0DF91CF911F910F9108957E
:10440000CF93DF93EC0188819981892B29F08A81F0
:104410009B818617970760F4CE010E94E6218823CE
:1044200041F08C819D81892B19F4E881F9811082FA
:1044300081E0DF91CF910895EF92FF920F931F9348
:10444000CF93DF93EC017B018A01BA010E94002225
:10445000811104C0CE010E94D42107C01D830C83AA
:10446000B701888199810E947025CE01DF91CF919B
:104470001F910F91FF90EF900895FC01118210821F
:1044800013821282158214826115710551F0FB01AD
:1044900001900020E9F73197AF01461B570B0C94B0
:1044A0001C220895CF93DF93EC016115710559F03B
:1044B000FB0101900020E9F73197AF01461B570B34
:1044C0000E941C2202C00E94D421CE01DF91CF9114
:1044D0000895FC01248135816217730748F48081B7
:1044E0009181009729F0FC01E60FF71F8081089564
:1044F00080E00895BF92CF92DF92EF92FF920F93E8
:104500001F93CF93DF937C016B018A01E90124178C
:10451000350720F4812F8901C42FD82F6DEF73E068
:10452000C7010E943D22D60114968D919C9115974A
:1045300008171907D0F48C179D0708F4EC01D60171
:10454000ED91FC911197EC0FFD1FB08010824D9101
:104550005C91BA01600F711FC7010E945222D601FF
:10456000ED91FC91EC0FFD1FB082C701DF91CF915F
:104570001F910F91FF90EF90DF90CF90BF90089523
:10458000FC0180819181009711F00C94402560E03E
:1045900070E0CB01089508950E94EC1D0E94CB228B
:1045A0000E94BF0CCFEEDEE10E9425082097E1F3C8
:1045B0000E94EF1EF9CF0895CF93DF9382309105CB
:1045C00010F482E090E0E0913506F091360620E0AC
:1045D00030E0C0E0D0E0309711F1408151814817C0
:1045E0005907C0F04817590761F4828193812097D9
:1045F00019F09B838A832BC09093360680933506EF
:1046000026C02115310519F04217530718F49A01F5
:10461000BE01DF01EF010280F381E02DDCCF211527
:10462000310509F1281B390B2430310590F412961D
:104630008D919C9113976115710521F0FB01938376
:10464000828304C09093360680933506FD0132962E
:1046500044C0FD01E20FF31F819391932250310971
:104660002D933C933AC02091330630913406232B8E
:1046700041F420917A0030917B00309334062093EE
:10468000330620917800309179002115310541F4ED
:104690002DB73EB740917C0050917D00241B350B17
:1046A000E0913306F0913406E217F307A0F42E1BD5
:1046B0003F0B2817390778F0AC014E5F5F4F241786
:1046C000350748F04E0F5F1F509334064093330672
:1046D0008193919302C0E0E0F0E0CF01DF91CF91B0
:1046E00008950F931F93CF93DF93009709F48CC025
:1046F000FC01329713821282009135061091360622
:104700000115110581F420813181820F931F2091C1
:104710003306309134062817390779F5F0933406BB
:10472000E093330671C0D80140E050E0AE17BF07F8
:1047300050F412962D913C911397AD01211531053E
:1047400009F1D901F3CF9D01DA013383228360811E
:104750007181860F971F8217930769F4EC012881F6
:104760003981260F371F2E5F3F4F318320838A8187
:104770009B8193838283452B29F4F0933606E09343
:10478000350642C01396FC93EE931297ED014991C2
:1047900059919E01240F351FE217F30771F48081B0
:1047A0009181840F951F029611969C938E9382811E
:1047B000938113969C938E931297E0E0F0E0D801DA
:1047C00012968D919C911397009719F0F8018C0126
:1047D000F6CF8D919C9198012E5F3F4F820F931FD2
:1047E00020913306309134062817390769F4309741
:1047F00029F4109236061092350602C013821282F6
:104800001093340600933306DF91CF911F910F91DF
:1048100008956F927F928F929F92AF92BF92CF92A4
:10482000DF92EF92FF920F931F93CF93DF93EC01F0
:10483000009789F4CB01DF91CF911F910F91FF90E9
:10484000EF90DF90CF90BF90AF909F908F907F9030
:104850006F900C94DC22FC01E60FF71F9C012250A4
:104860003109E217F30708F4ACC0D9010D911C918E
:10487000119706171707B0F00530110508F49FC00F
:10488000C80104978617970708F499C002501109C8
:10489000061B170B019311936D937C93CF010E941C
:1048A00071238DC05B01A01AB10A4C01800E911ECC
:1048B000A0913506B091360640E050E0E12CF12C95
:1048C000109709F44AC0A815B905D1F56D907C90F0
:1048D0001197630182E0C80ED11CCA14DB0480F179
:1048E000A3014A195B096A0182E0C80ED11C129625
:1048F000BC9012971396AC91B5E0CB16D10440F062
:10490000B282A38351834083D9016D937C930AC003
:104910000E5F1F4FC301800F911FF90191838083A8
:10492000EB2DFA2FE114F10431F0D7011396FC932B
:10493000EE93129744C0F0933606E09335063FC0DD
:104940008D919C9111974817590708F4AC017D018E
:1049500012960D90BC91A02DB3CF8091330690910B
:10496000340688159905E1F446175707C8F4809175
:10497000780090917900009741F48DB79EB74091EF
:104980007C0050917D00841B950BE817F907C8F453
:10499000F0933406E0933306F901718360830FC00E
:1049A000CB010E94DC227C01009759F0A801BE01D6
:1049B0000E946725CE010E947123C70104C0CE0169
:1049C00002C080E090E0DF91CF911F910F91FF90A6
:1049D000EF90DF90CF90BF90AF909F908F907F909F
:1049E0006F900895991B79E004C0991F961708F0FD
:1049F000961B881F7A95C9F780950895A1E21A2E13
:104A0000AA1BBB1BFD010DC0AA1FBB1FEE1FFF1F72
:104A1000A217B307E407F50720F0A21BB30BE40BC2
:104A2000F50B661F771F881F991F1A9469F7609509
:104A30007095809590959B01AC01BD01CF010895C3
:104A4000EE0FFF1F0590F491E02D09940E9431258F
:104A5000A59F900DB49F900DA49F800D911D1124D2
:104A60000895A29FB001B39FC001A39F700D811D47
:104A70001124911DB29F700D811D1124911D089567
:104A80001F93FC0199278827BC01E89411911032EB
:104A9000E9F3193010F01E30C8F31B3251F01D320B
:104AA00049F4689406C00E947725610F711D811D2D
:104AB000911D119110531A30B0F33EF490958095EA
:104AC000709561957F4F8F4F9F4F1F910895FB0108
:104AD000DC0102C001900D9241505040D8F708957A
:104AE000FB01DC0101900D920020E1F70895592FA0
:104AF000482F372F262F660F771F881F991F660FA5
:104B0000771F881F991F620F731F841F951F660FE1
:104B1000771F881F991F0895E199FECF9FBB8EBB19
:104B2000E09A99278DB30895262FE199FECF9FBB78
:104B30008EBB2DBB0FB6F894E29AE19A0FBE019698
:104B4000089512E0C0EBD2E004C0FE010E942025CF
:0C4B50002196C13BD107C9F7F894FFCFB4
:104B5C00134453784E414D2E444154004453784EE7
:104B6C0079792E44534B00FF00003706800030004B
:104B7C000D0A494F533A205344206572726F7220CC
:104B8C00004449534B5F455252004E4F545F5245BF
:104B9C00414459004E4F5F46494C45004E4F545FBF
:104BAC004F50454E4544004E4F545F454E41424C8C
:104BBC004544004E4F5F46494C4553595354454D5F
:104BCC0000554E4B4E4F574E00206F6E20004D4FF0
:104BDC00554E54004F50454E0052454144005752DB
:104BEC00495445005345454B00206F706572617404
:104BFC00696F6E00202D2046696C653A200044696F
:104C0C00736B20536574200031363A34373A34369E
:104C1C00005365702020312032303139002F000ACA
:104C2C00494F533A20525443206D616E75616C208C
:104C3C0073657474696E673A000A507265737320F9
:104C4C00542F5520746F20696E6372656D656E7498
:104C5C00202B31302F2B31206F7220435220746F58
:104C6C00206163636570740059656172202D3E206C
:104C7C00004D6F6E7468202D3E20002020202020D7
:104C8C0020202020202020200020446179202D3E4F
:104C9C002000486F757273202D3E20004D696E7593
:104CAC00746573202D3E20005365636F6E64732012
:104CBC002D3E2000202E2E2E646F6E65202020208D
:104CCC00202000494F533A205254432064617465AC
:104CDC002F74696D6520757064617465642028009B
:104CEC00494F533A20466F756E642052544320440A
:104CFC005333323331204D6F64756C652028004975
:104D0C004F533A205254432044533332333120749E
:104D1C00656D70657261747572652073656E736F05
:104D2C00723A20004300494F533A205254432063B7
:104D3C006C6F636B206661696C75726521000A4447
:104D4C006F20796F752077616E74207365742052B3
:104D5C00544320617420494F5320636F6D70696C0C
:104D6C00652074696D65202800293F205B592F4E02
:104D7C005D203E00494F533A2052544320736574D2
:104D8C0020617420636F6D70696C652074696D654A
:104D9C00202D204E6F773A2000340038004D487A91
:104DAC00004F4E004F4646004D487A290020373AB6
:104DBC0020546F67676C652043502F4D20417574EC
:104DCC006F6578656320282D3E0020383A204368B3
:104DDC00616E6765200020393A204368616E676513
:104DEC00205254432074696D652F646174650045CD
:104DFC006E74657220796F75722063686F69636574
:104E0C00203E0020204F6B000D202D3E00424153D0
:104E1C00494334372E42494E00464F5254483133A1
:104E2C002E42494E0043504D32322E42494E0051D3
:104E3C00504D4C44522E42494E0043504D4C44521E
:104E4C002E434F4D00554353444C44522E42494E31
:104E5C00004155544F424F4F542E42494E00494F3A
:104E6C00533A204C6F6164696E6720626F6F7420D7
:104E7C0070726F6772616D202800292E2E2E002013
:104E8C00446F6E6500494F533A205A38302069738D
:104E9C002072756E6E696E672066726F6D206E6F14
:104EAC007700494F533A204C6F6164696E672062FA
:104EBC006F6F742070726F6772616D2E2E2E001FD3
:104ECC001C1F1E1F1E1F1F1E1F1E1F000000005B2D
:104EDC001A2B1AFF19071A1B1A2A1A000000004075
:104EEC001F7A20C11EDB1ECD1E1E1F0D0A006E6117
:0A4EFC006E00696E66006F766600B6
:107E000001C0A8C011248FE598E09EBF8DBF84B744
:107E100014BE982F9D7009F0CBD085E08EBD82E016
:107E20008BB988E18AB986E880BD80E189B98EE0A6
:107E3000ACD0B89A24E080E39CEF54E041E09DBDD3
:107E40008CBD58BF08B602FEFDCF38B3342738BB0F
:107E5000A8952150A1F7C0E0D0E090D0813469F41A
:107E60008DD0182F96D0123809F46AC0113811F449
:107E700086E001C083E07ED06AC0823411F484E1E0
:107E800003C0853419F485E08CD061C0853541F498
:107E900075D0C82F73D0D0E0D82BCC0FDD1F56C0C3
:107EA000863521F484E07DD080E0E5CF843691F5FD
:107EB00065D064D0D82E62D0F82E00E610E080E6BF
:107EC000D80E5CD0F80181938F01DE12FACF61D019
:107ED000F5E4FF1201C0FFCF40E050E063E0CE01C7
:107EE00039D07E0100E610E0F80140810E5F1F4F9F
:107EF0003196808150E0582B61E0C7012BD0F2E031
:107F0000EF0EF11CD012F0CF40E050E065E0CE0162
:107F100021D01DC0843769F431D030D0F82E2ED056
:107F200038D08E01F80185918F0124D0FA94D1F7D1
:107F30000EC0853739F42DD08EE11CD085E91AD0DA
:107F400082E099CF813511F488E01FD022D080E102
:107F500011D083CFFC010A0167BFE895112407B651
:107F600000FCFDCF667029F0452B19F481E187BF35
:107F7000E89508955D9BFECF8CB908955F9BFECF79
:107F80005C9901C0A8958CB1089598E191BD81BD1F
:107F90000895F4DF803219F088E0F7DFFFCF84E145
:107FA000E9CFCF93C82FEADFC150E9F7CF91F1CFE6
:0C7FB000282E80E0EADFE0E0FF270994C3
:027FFE00020679
:0400000300007E007B
:00000001FF
